:020000040800F2
:100000000000022059170008C9160008CB16000886
:10001000CD160008CF160008D11600080000000019
:100020000000000000000000000000007133000824
:10003000D316000800000000A1330008D516000800
:10004000A9170008A9170008A9170008A917000890
:10005000A9170008A9170008A9170008A917000880
:10006000A9170008A9170008A9170008A917000870
:10007000A9170008A9170008A9170008A917000860
:10008000A9170008A917000835170008A9170008C4
:10009000A9170008A9170008A9170008A917000840
:1000A000A9170008A9170008A9170008A917000830
:1000B000A9170008A9170008A9170008A917000820
:1000C000A9170008A9170008A9170008A917000810
:1000D000A9170008F1160008A9170008A9170008B9
:1000E000A9170008A9170008A9170008A9170008F0
:1000F000A9170008A9170008A9170008A9170008E0
:10010000A9170008A9170008A9170008A9170008CF
:10011000A9170008A9170008A9170008A9170008BF
:10012000A9170008A9170008A9170008A9170008AF
:10013000A9170008A9170008A9170008A91700089F
:10014000A9170008A9170008A9170008A91700088F
:10015000A9170008A9170008A9170008A91700087F
:10016000A9170008A9170008A9170008A91700086F
:10017000A9170008A9170008A91700080000000027
:08018000A9170008A9170008E7
:1001900010B5054C237833B9044B13B10448AFF3C1
:1001A00000800123237010BD3C04002000000000EB
:1001B000F837000808B5034B1BB103490348AFF3F8
:1001C000008008BD0000000040040020F83700084F
:1001D00081F0004102E000BF83F0004330B54FEAF8
:1001E00041044FEA430594EA050F08BF90EA020F65
:1001F0001FBF54EA000C55EA020C7FEA645C7FEAF8
:10020000655C00F0E2804FEA5454D4EB5555B8BF1A
:100210006D420CDD2C4480EA020281EA030382EA8B
:10022000000083EA010180EA020281EA0303362D1D
:1002300088BF30BD11F0004F4FEA01314FF4801CF0
:100240004CEA113102D0404261EB410113F0004F02
:100250004FEA03334CEA133302D0524263EB4303B9
:1002600094EA050F00F0A780A4F10104D5F1200E57
:100270000DDB02FA0EFC22FA05F2801841F10001B2
:1002800003FA0EF2801843FA05F359410EE0A5F186
:1002900020050EF1200E012A03FA0EFC28BF4CF0B7
:1002A000020C43FA05F3C01851EBE37101F000456D
:1002B00007D54FF0000EDCF1000C7EEB00006EEB7A
:1002C0000101B1F5801F1BD3B1F5001F0CD3490804
:1002D0005FEA30004FEA3C0C04F101044FEA44525B
:1002E00012F5800F80F09A80BCF1004F08BF5FEAE2
:1002F000500C50F1000041EB045141EA050130BDC2
:100300005FEA4C0C404141EB0101013C28BFB1F5D3
:10031000801FE9D291F0000F04BF01460020B1FA1E
:1003200081F308BF2033A3F10B03B3F120020CDAF1
:100330000C3208DD02F1140CC2F10C0201FA0CF0CF
:1003400021FA02F10CE002F11402D8BFC2F1200C34
:1003500001FA02F120FA0CFCDCBF41EA0C019040EA
:10036000E41AA2BF01EB0451294330BD6FEA040433
:100370001F3C1CDA0C340EDC04F11404C4F120021E
:1003800020FA04F001FA02F340EA030021FA04F330
:1003900045EA030130BDC4F10C04C4F1200220FA87
:1003A00002F001FA04F340EA0300294630BD21FAC5
:1003B00004F0294630BD94F0000F83F4801306BF8B
:1003C00081F480110134013D4EE77FEA645C18BF7F
:1003D0007FEA655C29D094EA050F08BF90EA020F16
:1003E00005D054EA000C04BF1946104630BD91EA0E
:1003F000030F1EBF0021002030BD5FEA545C05D111
:100400004000494128BF41F0004130BD14F580044F
:100410003CBF01F5801130BD01F0004545F0FE41C3
:1004200041F470014FF0000030BD7FEA645C1ABFF8
:10043000194610467FEA655C1CBF0B46024650EA2F
:10044000013406BF52EA033591EA030F41F400215B
:1004500030BD00BF90F0000F04BF0021704730B5E1
:100460004FF4806404F132044FF000054FF00001B6
:1004700050E700BF90F0000F04BF0021704730B577
:100480004FF4806404F1320410F0004548BF40424C
:100490004FF000013EE700BF42004FEAE2014FEAA1
:1004A00031014FEA02701FBF12F07F4393F07F4F7C
:1004B00081F06051704732F07F4208BF704793F07F
:1004C0007F4F04BF41F40021704730B54FF4607492
:1004D00001F0004521F000411CE700BF50EA010295
:1004E00008BF704730B54FF000050AE050EA01023E
:1004F00008BF704730B511F0004502D5404261EBAE
:1005000041014FF4806404F132045FEA915C3FF4EE
:10051000D8AE4FF003025FEADC0C18BF03325FEA8B
:10052000DC0C18BF033202EBDC02C2F1200300FA3C
:1005300003FC20FA02F001FA03FE40EA0E0021FA61
:1005400002F11444BDE600BF4FEA410212F5001269
:1005500015D211D56FF47873B3EB625212D94FEA0A
:10056000C12343F0004343EA505311F0004F23FAF4
:1005700002F018BF404270474FF00000704750EA49
:10058000013005D111F0004008BF6FF00040704706
:100590004FF00000704700BF53B94AB9002908BFA7
:1005A00000281CBF4FF0FF314FF0FF3000F074B94E
:1005B000ADF1080C6DE904CE00F006F8DDF804E0BA
:1005C000DDE9022304B070472DE9F047089D044699
:1005D0008E46002B4DD18A42944669D9B2FA82F2F6
:1005E00052B101FA02F3C2F1200120FA01F10CFA32
:1005F00002FC41EA030E94404FEA1C48210CBEFB6A
:10060000F8F61FFA8CF708FB16E341EA034306FBF2
:1006100007F199420AD91CEB030306F1FF3080F081
:100620001F81994240F21C81023E63445B1AA4B2CE
:10063000B3FBF8F008FB103344EA034400FB07F770
:10064000A7420AD91CEB040400F1FF3380F00A81B1
:10065000A74240F207816444023840EA0640E41BA6
:1006600000261DB1D4400023C5E900433146BDE852
:10067000F0878B4209D9002D00F0EF800026C5E9F4
:10068000000130463146BDE8F087B3FA83F6002E0C
:100690004AD18B4202D3824200F2F980841A61EB84
:1006A000030301209E46002DE0D0C5E9004EDDE7A2
:1006B00002B9FFDEB2FA82F2002A40F09280A1EB8A
:1006C0000C014FEA1C471FFA8CFE0126200CB1FBDF
:1006D000F7F307FB131140EA01410EFB03F08842D8
:1006E00008D91CEB010103F1FF3802D2884200F265
:1006F000CB804346091AA4B2B1FBF7F007FB1011F7
:1007000044EA01440EFB00FEA64508D91CEB040494
:1007100000F1FF3102D2A64500F2BB800846A4EBEF
:100720000E0440EA03409CE7C6F12007B34022FADA
:1007300007FC4CEA030C20FA07F401FA06F31C4309
:10074000F9404FEA1C4900FA06F3B1FBF9F8200C16
:100750001FFA8CFE09FB181140EA014108FB0EF05C
:10076000884202FA06F20BD91CEB010108F1FF3AAC
:1007700080F08880884240F28580A8F102086144B8
:10078000091AA4B2B1FBF9F009FB101144EA0141C6
:1007900000FB0EFE8E4508D91CEB010100F1FF3471
:1007A0006CD28E456AD90238614440EA0840A0FB09
:1007B0000294A1EB0E01A142C846A64656D353D0DF
:1007C0005DB1B3EB080261EB0E0101FA07F722FA03
:1007D00006F3F1401F43C5E9007100263146BDE82C
:1007E000F087C2F12003D8400CFA02FC21FA03F38F
:1007F000914001434FEA1C471FFA8CFEB3FBF7F010
:1008000007FB10360B0C43EA064300FB0EF69E4234
:1008100004FA02F408D91CEB030300F1FF382FD2CD
:100820009E422DD9023863449B1B89B2B3FBF7F675
:1008300007FB163341EA034106FB0EF38B4208D94E
:100840001CEB010106F1FF3816D28B4214D9023E8F
:100850006144C91A46EA004638E72E46284605E7AD
:100860000646E3E61846F8E64B45A9D2B9EB02087E
:1008700064EB0C0E0138A3E74646EAE7204694E70E
:100880004046D1E7D0467BE7023B614432E7304641
:1008900009E76444023842E7704700BF00B589B0F9
:1008A00000220192144B196B41F008011963196B76
:1008B00001F00801019101990292196B41F01001B8
:1008C00019631B6B03F010030293029B4FF48073B8
:1008D00003930123049302230693059203A9074877
:1008E00001F058FB0423039303A9054801F052FBD0
:1008F00009B05DF804FB00BF00380240000C024064
:100900000010024008B501224FF48071014801F047
:1009100033FC08BD000C024008B501220421024846
:1009200001F02AFC08BD00BF0010024010B50C46C3
:10093000104B1880C0F3C323022B06D00E4B1C8033
:10094000C4F3C323032B0AD010BD01460B4800F0AB
:100950003DFE084B19880A4800F038FEEEE72146B4
:10096000064800F033FE044B1988054800F02EFEBF
:10097000EAE700BF5A0400205C0400200030014078
:10098000003C004008B500F0FFFDFFF787FFFFF7D0
:10099000B9FFFFF7C1FF4FF4FA7000F059FF41F6BD
:1009A000D210064B188041F60801054B1980FFF75D
:1009B000BDFF044B4FF410421A8008BD5A040020BA
:1009C0005C0400205804002030B58BB00024019452
:1009D000264B1A6B42F020021A631A6B02F02002B7
:1009E0000192019A02941A6B42F020021A631A6B68
:1009F00002F020020292029A03941A6B42F0200243
:100A00001A631A6B02F020020392039A04941A6B81
:100A100042F020021A631B6B03F020030493049B33
:100A200008230593032306930794114D05A928462F
:100A300001F0B0FA1023059305A9284601F0AAFA9F
:100A40002023059305A9284601F0A4FA4023059325
:100A500005A9284601F09EFA22462146122001F0FF
:100A600017FA122001F04CFA0BB030BD00380240EA
:100A7000001402402DE9F04182B000260196224B7D
:100A80005A6C42F480625A645B6C03F48063019395
:100A9000019B1E4C1E4B23604FF480336360A660A5
:100AA00001272761267684F82060E662194BA3624D
:100AB0004FF40063E360E76184F8306067612046CB
:100AC00000F07BFF144D09232B606F604FF002088C
:100AD000C5F81080AE604FF48013EB61AE616E75A7
:100AE0002F75EE602946204601F0B8F80E232B60E2
:100AF000C5F804802946204601F0B0F8204601F0F0
:100B00002BF802B0BDE8F08100380240300C002024
:100B1000002201400100000F780C002008B5FFF70B
:100B200053FFFFF7A7FF08BD024BDA6B024B5A8059
:100B3000704700BF002201406004002008B5026831
:100B4000044B9A4200D008BDFFF7EEFF00F0BCFA5C
:100B5000F9E700BF0022014010B58AB000220092E0
:100B60002C4B196B41F002011963196B01F0020162
:100B7000009100990192196B41F020011963196BE2
:100B800001F02001019101990292196B41F02001BD
:100B90001963196B01F02001029102990392196BFC
:100BA00041F020011963196B01F0200103910399B1
:100BB0000492196B41F0200119631B6B03F02003B1
:100BC0000493049B022305930692079305A91248F8
:100BD00001F0E0F94FF400630593104C05A920469D
:100BE00001F0D8F94FF40053059305A9204601F010
:100BF000D1F94FF48043059305A9204601F0CAF9C5
:100C00004FF40043059305A9204601F0C3F90AB04B
:100C100010BD00BF00380240000402400014024032
:100C20002DE9F0438BB0002201922A4B196B41F061
:100C300040011963196B01F0400101910199029281
:100C4000196B41F040011963196B01F040010291E9
:100C500002990392196B41F010011963196B01F0AD
:100C600010010391039904921A6B42F010021A6367
:100C70001B6B03F010030493049B01260596069654
:100C8000079603230893144D05A9284601F082F91D
:100C90004FF00209CDF8149005A9284601F07AF921
:100CA0004FF08008CDF814800C4C05A9204601F0C7
:100CB00071F94FF48077059705A9204601F06AF98C
:100CC000AE61C5F81890C4F81880A7610BB0BDE8F4
:100CD000F08300BF003802400018024000100240BC
:100CE00070B58CB000220192394B196B41F00101B3
:100CF0001963196B01F00101019101990292196BBD
:100D000041F002011963196B01F00201029102998D
:100D10000392196B41F001011963196B01F0010194
:100D2000039103990492196B41F002011963196B45
:100D300001F00201049104990592196B41F001013F
:100D40001963196B01F00101059105990692196B60
:100D500041F0020119631B6B03F002030693069B2B
:100D6000099202250A95089501240B944FF400532B
:100D70000793184E07A9304601F00CF94FF4804351
:100D8000079307A9304601F005F94FF40043079394
:100D900007A9304601F0FEF808954FF480730793D9
:100DA0000B940D4D07A9284601F0F4F84FF4007399
:100DB00007930B9407A9284601F0ECF84FF48063E1
:100DC00007930B9407A9284601F0E4F80CB070BD16
:100DD00000380240000402400000024070B582B0BA
:100DE00000250195394B5A6C42F001025A645B6C44
:100DF00003F001030193019B354C364B236041F214
:100E00006703E36065604FF4807323612023A36070
:100E100001236361204601F065FE2F494FF480569F
:100E20000E60204601F03DFF2C490D604D602046CC
:100E300002F0D4F82A490D604D608D60CD600E61DE
:100E40004FF400534B61CD61204602F00DF9254E61
:100E5000602333607560B560F5607561B5612A46E1
:100E60003146204601F0A2FE04223146204601F020
:100E70009DFE08223146204601F098FE7023336023
:100E800041F2360373600C223146204601F08EFE9B
:100E90002946204601F094FF2946204602F022F818
:100EA0000421204601F08CFF0421204602F01AF8AC
:100EB0000821204601F084FF0821204602F012F8A4
:100EC0000C21204601F07CFF02B070BD00380240CA
:100ED000EC0C002000000140B80C0020C80C0020E1
:100EE000980C0020D00C002008B5FFF7F9FEFFF7A2
:100EF00075FF08BD82B00190BDF9042047F2AA1326
:100F000003FB02F2BDF906106D4B03FB01F1501813
:100F100043108A1A4FEA620CB0F1FF3F1BDBB2F1BB
:100F2000FF3FC0F28B80B3EB0C0378D49B1403F625
:100F300034039446002A77DB03EBAC4C02460028CE
:100F400077DBA3EBA2425F490B80A1F802C08A8045
:100F5000002002B07047B2F1FF3F11DB00292FDD06
:100F60005B1A4DD49B1403F63403024600284CDB75
:100F7000A3EBA2428C4600294CDB02EB6C4CE2E76F
:100F8000B3EB0C030DD49B1403F634039446002AF0
:100F90000CDB03EBAC4C024600280CDBA3EBA242BB
:100FA000D1E703F57F3303F2FF33ECE702F57F3C33
:100FB0000CF2FF3CEDE700F57F3202F2FF32EDE785
:100FC000B1EB0C030DD49B1403F634039446002AB2
:100FD0000CDB03EBAC4C0A4600290CDBACEB6242A9
:100FE000B1E703F57F3303F2FF33ECE702F57F3C13
:100FF0000CF2FF3CEDE701F5FF3202F2FF12EDE7E4
:1010000003F57F3303F2FF33ACE700F57F3202F2E2
:10101000FF32ADE701F5FF3C0CF2FF1CADE703F535
:101020007F3303F2FF3381E702F57F3C0CF2FF3C94
:1010300082E700F57F3202F2FF3282E7002910DDFD
:10104000B1EB0C032CD49B1403F634039446002A12
:101050002BDB03EBAC4C0A4600292BDBACEB6242EA
:1010600071E75B1A0DD49B1403F634030246002883
:101070000CDBA3EBA2428C4600290CDB02EB6C4C90
:1010800061E703F57F3303F2FF33ECE700F57F32CE
:1010900002F2FF32EDE701F5FF3C0CF2FF1CEDE739
:1010A00003F57F3303F2FF33CDE702F57F3C0CF20B
:1010B000FF3CCEE701F5FF3202F2FF12CEE700BFA0
:1010C00060BEFFFF380D002010B582B000230193F1
:1010D000304CB4F90000FFF7CDF900222E4BFFF79A
:1010E0007DF8FFF731FA00B22080C0F38913C0F316
:1010F000813003284AD8DFE800F002202D3CDBB223
:10110000264931F913209203DB43DBB231F9133066
:101110009B031214ADF804201B14ADF8063001989F
:10112000FFF7E8FE1E4B1B681E4A11885963518861
:1011300099639288DA6302B010BDDBB2DA43D2B2AF
:10114000164931F91220920331F91330C3EB83436E
:101150009B03DEE7DBB2114931F91320C2EB824277
:101160009203DB43DBB231F91330C3EB83439B03C0
:10117000CFE7DBB2DA43D2B2084931F91220C2EB31
:101180008242920331F913309B03C2E700231A46CF
:10119000BFE700BF340D0020008058401038000821
:1011A000EC0C0020380D00200C4B93F800C00CF123
:1011B00001035A4203F07F0302F07F0258BF5342FB
:1011C000DBB2074A12789A4205D000F80C10034AA5
:1011D0001370002070470120704700BF010E0020EF
:1011E000000E002072B6FEE710B594B000240F94F4
:1011F00010941194129413943022214603A802F003
:1012000039FA01942F4B1A6C42F080521A641B6C0D
:1012100003F080530193019B02942B4B1A6842F414
:1012200080421A601B6803F480430293029B0123EF
:1012300003934FF480330493022309934FF4800205
:101240000A9208220B924FF4A8720C920D93042379
:101250000E9303A800F096FF48BB0F230F930223C1
:101260001093002311934FF4A05312934FF4805323
:10127000139305210FA801F0EBF9D0B900F0FCFAA7
:1012800041F20103984216D001F092FA0F4BA3FBF2
:101290000030800900F042FE042000F053FE0022DE
:1012A00011464FF0FF3000F0F3FD14B010BDFFF712
:1012B00099FFFFF797FF064A136843F480731360A2
:1012C000E2E700BF0038024000700040D34D6210DA
:1012D000003C024008B500F08FFAFFF785FFFFF7EA
:1012E0009FFC0B4B4FF480329A61FFF74BFBFFF7EB
:1012F00033FCFFF713FCFFF7F7FD4FF47A7000F0B3
:10130000A7FA044B1A68536843F080035360FEE762
:1013100000180240300C0020F0B591B00024019478
:101320002E4B5A6C42F480525A645A6C02F480522A
:101330000192019A02941A6B42F001021A631A6B2D
:1013400002F001020292029A03941A6B42F0010227
:101350001A631A6B02F001020392039A04941A6B47
:1013600042F001021A631A6B02F001020492049A1D
:1013700005941A6B42F008021A631B6B03F0080312
:101380000593059B20230B9302250C950E950D9438
:1013900005230F93124E0BA9304600F0FBFD4023AE
:1013A0000B930BA9304600F0F5FD80230B930BA99E
:1013B000304600F0EFFD4FF4806606960127079750
:1013C00009950894074C06A9204600F0E3FD3A462B
:1013D0003146204600F0D0FE11B0F0BD003802408A
:1013E00000000240000C0240F0B591B000240194CE
:1013F0002E4B1A6C42F400421A641A6C02F400423A
:101400000192019A02941A6B42F002021A631A6B5B
:1014100002F002020292029A03941A6B42F0020254
:101420001A631A6B02F002020392039A04941A6B75
:1014300042F002021A631A6B02F002020492049A4A
:1014400005941A6B42F040021A631B6B03F04003D1
:101450000593059B08230B9302250C950E950D947F
:1014600006230F93124E0BA9304600F093FD102374
:101470000B930BA9304600F08DFD20230B930BA995
:10148000304600F087FD4FF48066069601270797E7
:1014900009950894074C06A9204600F07BFD3A46C2
:1014A0003146204600F068FE11B0F0BD0038024021
:1014B000000402400018024010B582B000230193DE
:1014C000144A516C41F480515164526C02F48052C0
:1014D0000192019A104C114A2260A3604FF482726B
:1014E00062600F22E2624FF40062E260236218221F
:1014F000E2614FF40072A26123610123636120461F
:1015000001F05DF92268136843F04003136002B0F4
:1015100010BD00BF00380240040E00200030014022
:1015200010B582B000230193144A116C41F40041BC
:101530001164126C02F400420192019A104C114A9B
:101540002260A3604FF4827262600F22E2624FF465
:101550000062E26023621822E2614FF40072A2612D
:10156000236101236361204601F029F92268136891
:1015700043F04003136002B010BD00BF00380240CA
:101580005C0E0020003C004008B5FFF7C5FEFFF7E9
:101590002BFFFFF791FFFFF7C3FF08BD38B50446E7
:1015A0000D460221204601F06EF90028F9D02946A7
:1015B000204601F063F90121204601F064F900287A
:1015C000F9D0204601F05CF938BD000070B50C463A
:1015D000284B984227D0284D00224FF4806128469E
:1015E00000F0CAFD254E21463046FFF7D7FF012205
:1015F0004FF48061284600F0BFFD0A2000F028F972
:1016000000224FF48061284600F0B6FD21463046A6
:10161000FFF7C4FF044601224FF48061284600F022
:10162000ABFD204670BD164D00224FF48061284668
:1016300000F0A2FD0F4E21463046FFF7AFFF01221A
:101640004FF48061284600F097FD0A2000F000F971
:1016500000224FF48061284600F08EFD214630467E
:10166000FFF79CFF044601224FF48061284600F0FA
:1016700083FDD6E70030014000180240003C0040E6
:10168000000C024000B583B0002200920D4B596C53
:1016900041F480415964596C01F4804100910099F2
:1016A0000192196C41F0805119641B6C03F0805356
:1016B0000193019B0F216FF0010000F0E9FB03B0E3
:1016C0005DF804FB00380240FEE7FEE7FEE7FEE7B8
:1016D000FEE7704708B500F0A9F800F044FC01F0FF
:1016E00095FF012800D108BD01F08CFEFBE700004A
:1016F00010B50D4B1B685A68DA6812F0200F09D13B
:10170000094C204601F07AFD2268D36843F020039B
:10171000D36010BD5968C9B20448FFF745FD024BBC
:101720001B68034A1A60EBE7400D0020800D002083
:10173000DFFFFFEF08B5024800F06DF908BD00BFFC
:10174000300C0020034AD2F8883043F47003C2F80A
:101750008830704700ED00E0DFF834D00D480E49C6
:101760000E4A002302E0D458C4500433C4188C42FB
:10177000F9D30B4A0B4C002301E013600432A24260
:10178000FBD3FFF7DFFF01F051FFFFF7A3FD704729
:1017900000000220000000203C040020383A00082D
:1017A0003C040020740F0020FEE7000010B5044642
:1017B0000E4B18784FF47A73B3FBF0F30C4A1068B1
:1017C000B0FBF3F000F0AAFB68B90F2C01D901209F
:1017D0000AE0002221464FF0FF3000F059FB054B94
:1017E0001C60002000E0012010BD00BF04000020AC
:1017F000000000200800002008B50B4B1A6842F4D6
:1018000000721A601A6842F480621A601A6842F420
:1018100080721A60032000F029FB0F20FFF7C6FF3B
:10182000FFF730FF002008BD003C0240034A11686A
:10183000034B1B780B441360704700BFB40E0020AD
:1018400004000020014B1868704700BFB40E002050
:1018500038B50446FFF7F6FF0546B4F1FF3F02D066
:10186000044B1B781C44FFF7EDFF401BA042FAD34A
:1018700038BD00BF04000020014B1868000C704701
:10188000002004E04A4B5A6822F440325A605A68F9
:1018900041680A435A600268536823F480735360B6
:1018A00002685368016943EA012353600268536880
:1018B00023F0407353600268536881680B435360A0
:1018C0000268936823F40063936002689368C168B8
:1018D0000B439360826A374B9A4257D002689368F1
:1018E00023F07063936002689368816A0B4393608E
:1018F0000268936823F04053936002689368C16A5A
:101900000B4393600268936823F0020393600268BC
:101910009368017E43EA4103936090F82030002BE6
:101920003FD00268536843F4006353600268536811
:1019300023F46043536001684B68426A013A43EA0A
:1019400042334B600268D36A23F47003D3620168A8
:10195000CB6AC269013A43EA0253CB6202689368D8
:1019600023F4007393600268936890F8301043EAA0
:10197000412393600268936823F480639360026854
:101980009368416943EA81239360704702689368D2
:1019900023F0706393600268936823F04053936070
:1019A000B0E70268536823F400635360CAE700BFDE
:1019B000002301400100000F704738B310B5044602
:1019C000036C43B1236C13F0100F0BD001200023E4
:1019D00084F83C3010BDFFF7EFFF0023636484F808
:1019E0003C30EFE7236C23F4885323F0020343F0E9
:1019F000020323642046FFF745FF00206064236C48
:101A000023F0030343F001032364E0E70120704760
:101A100070477047704770B5044603681E685D687C
:101A200016F0020F2FD005F0200262B3026C12F004
:101A3000100F03D1026C42F4007202649A6812F033
:101A4000405F19D1227EBAB9DA6A12F4700F03D05E
:101A50009A6812F4806F0FD15A6822F020025A60FF
:101A6000236C23F480732364236C13F4805F03D10D
:101A7000236C43F0010323642046FFF7C9FF23686A
:101A80006FF012021A6005F0800316F0040F37D0D1
:101A9000002B35D0236C13F0100F03D1236C43F4CB
:101AA0000053236423689A6812F4401F21D19A6B73
:101AB00012F4401F03D09A6812F4806F19D15A684B
:101AC00012F4806F15D19A6812F0405F11D1227E16
:101AD0007AB95A6822F080025A60236C23F480534A
:101AE0002364236C13F4807F03D1236C43F0010340
:101AF00023642046FFF722F823686FF00C021A6077
:101B000005F0400316F0010F05D023B123681B68D0
:101B100013F0010F06D105F0806516F0200F00D0FC
:101B200065B970BD236C43F4803323642046FFF70E
:101B300070FF23686FF001021A60ECE7636C43F0FA
:101B40000203636423686FF020051D602046FFF7E1
:101B500061FF23681D60E4E782B00023019390F8E1
:101B60003C30012B67D0012380F83C3003689A6831
:101B700012F0010F13D19A6842F001029A60334BC0
:101B80001B68334AA2FB03239B0C03EB4303019323
:101B900002E0019B013B0193019B002BF9D10268FC
:101BA000936813F0010F3BD0036C23F4405323F0F0
:101BB000010343F480530364036C13F4807F01D169
:101BC00000234364002380F83C306FF0040313606B
:101BD000204B5B6813F01F0F0ED1026891685368A9
:101BE00003F4806311F4401F27D143BB936843F48F
:101BF0008003936000201CE003689A6802F440129E
:101C0000596801F480611448834201D0002010E03B
:101C1000BAB9C1B99A6842F480029A60002008E01B
:101C2000036C43F010030364436C43F0010343640B
:101C3000002002B070470220FBE70020F9E70020F7
:101C4000F7E70020F5E70020F3E700BF00000020E1
:101C500083DE1B43002301400020014090F83C300C
:101C6000012B00F0FB8030B4012380F83C300B687E
:101C7000092B7FD90568EA689BB203EB43031E3B3F
:101C8000072404FA03F322EA0303EB600568EA6819
:101C90008C680B8803EB43031E3B04FA03F31343E6
:101CA000EB600268936B23F4401393630468A36BA7
:101CB0000A69013A43EA0253A3630468A26B4B68C2
:101CC0000D695B1BDBB20333DBB203EB83034FF025
:101CD0001F0C0CFA03F322EA0303A3630468A26B4C
:101CE0004B680D695B1BDBB20333DBB203EB830391
:101CF000B1F800C00CFA03F31343A3638A69584B8D
:101D00009A424DD00268936823F47023936002686E
:101D100093688C69234393600268936823F44013AB
:101D2000936002689368CC69234393604B7D002BDA
:101D300041D00268536843F4806353600B7D002BED
:101D40003FD00268536843F4805353604B68022BC2
:101D500057D0032B62D0012B39D00268136A23F4C9
:101D60007F6323F00F0313620268136ACC68234376
:101D7000136238E005682A699BB203EB430307242A
:101D800004FA03F322EA03032B6105682A698C68CD
:101D90000B8803EB430304FA03F313432B6180E73F
:101DA0000268936823F4702393600268936823F4B5
:101DB00040139360BAE70268536823F4806353606A
:101DC000BCE70268536823F480535360BEE702689F
:101DD000536923F47F6323F00F035361026853694F
:101DE000CC682343536102681E4B9A4223D0026899
:101DF0001C4B9A4228D0002380F83C30184630BC57
:101E000070470268936923F47F6323F00F039361A3
:101E100002689369CC6823439361E4E70268D3695D
:101E200023F47F6323F00F03D3610268D369CC6886
:101E30002343D361D7E70B68122BD8D10A4A5368E2
:101E400043F480035360D2E70B68103B012BD2D8D8
:101E5000054A536843F400035360CCE702207047FF
:101E600001000F000020014000230140074AD36811
:101E700023F4E0631B041B0C000200F4E060034346
:101E800043F0BF6343F40033D360704700ED00E0DC
:101E900000B5194BDB68C3F30223C3F1070CBCF197
:101EA000040F28BF4FF0040C03F1040EBEF1060F1F
:101EB00018D9033B4FF0FF3E0EFA0CFC21EA0C014F
:101EC00099400EFA03F322EA0303194300280BDBBF
:101ED0000901C9B200F1604000F5614080F80013CB
:101EE0005DF804FB0023E5E700F00F000901C9B22B
:101EF000024B1954F4E700BF00ED00E014ED00E0E0
:101F0000002807DB00F01F02400901239340024A2A
:101F100042F82030704700BF00E100E00138B0F126
:101F2000807F0BD24FF0E0235861054AF02182F800
:101F300023100020986107221A6170470120704722
:101F400000ED00E0042806D04FF0E022136923F0F2
:101F50000403136170474FF0E022136943F0040358
:101F600013617047704708B5FFF7FCFF08BD90F894
:101F70003530DBB2022B03D080234365012070474C
:101F8000052380F835300268136823F001031360DD
:101F90000020704700230F2B00F2E48070B582B060
:101FA00060E085685E000324B44025EA0405CC683F
:101FB000B4402C438460456825EA02054C68C4F3AC
:101FC00000129A402A4342605AE0DC08083450F874
:101FD000246003F0070295000F22AA4026EA020EB1
:101FE0000A69AA4042EA0E0240F824205CE0072277
:101FF00000E0002202FA0EF22A4302345A4D45F85C
:1020000024205A4A94686FEA0C0224EA0C054E68B0
:1020100016F4801F01D04CEA0405544CA560E46816
:1020200002EA04054E6816F4001F01D04CEA0405CC
:102030004E4CE560646802EA04054E6816F4003F01
:1020400001D04CEA0405494C6560246822404D6883
:1020500015F4803F01D04CEA0402444C2260013365
:102060000F2B7DD801229A400C6804EA020C32EA58
:102070000404F4D14C6804F00304013C012C90D911
:102080004A6802F00302032A09D0C4685D000322F3
:10209000AA4024EA02048A68AA402243C2604A682D
:1020A00002F00302022A90D004684FEA430E032292
:1020B00002FA0EF224EA02044A6802F0030202FA6B
:1020C0000EF2224302604A6812F4403FC7D0002259
:1020D0000192274A546C44F480445464526C02F4D4
:1020E00080420192019A9C08A51C1F4A52F8255073
:1020F00003F003024FEA820E0F2202FA0EF225EAE3
:1021000002051C4A90423FF474AF02F5806290428F
:102110001AD002F58062904218D002F58062904297
:1021200016D002F58062904214D002F5806290428F
:1021300012D002F58062904210D002F58062904287
:102140003FF455AF082255E7012253E7022251E739
:1021500003224FE704224DE705224BE7062249E719
:1021600002B070BD704700BF00380140003C014024
:1021700000380240000002400AB181617047090442
:1021800081617047002800F0E08170B582B004469C
:10219000036813F0010F3BD09F4B9B6803F00C03C7
:1021A000042B2CD09C4B9B6803F00C03082B21D0F4
:1021B0006368B3F5803F4FD0B3F5A02F52D0964B54
:1021C0001A6822F480321A601A6822F480221A6097
:1021D0006368002B50D0FFF735FB05468E4B1B681C
:1021E00013F4003F14D1FFF72DFB401B6428F5D9F1
:1021F0000320B1E1884B5B6813F4800FD8D0864B85
:102200001B6813F4003F03D06368002B00F09F812C
:10221000236813F0020F54D07F4B9B6813F00C0F10
:102220003ED07D4B9B6803F00C03082B33D0E36852
:10223000002B68D0794B01221A60FFF703FB05469B
:10224000754B1B6813F0020F54D1FFF7FBFA401BCC
:102250000228F5D903207FE16F4A136843F48033E5
:102260001360B5E76C4B1A6842F480221A601A6852
:1022700042F480321A60ABE7FFF7E4FA0546664B9A
:102280001B6813F4003FC3D0FFF7DCFA401B64283F
:10229000F5D9032060E1604B5B6813F4800FC6D171
:1022A0005D4B1B6813F0020F03D0E368012B40F075
:1022B0005081594A136823F0F803216943EAC103A6
:1022C0001360236813F0080F42D063696BB3534B5C
:1022D0000122C3F8802EFFF7B5FA05464E4B5B6F1F
:1022E00013F0020F34D1FFF7ADFA401B0228F5D9E5
:1022F000032031E1484A136823F0F803216943EAD7
:10230000C1031360DDE7454B00221A60FFF79AFA1C
:102310000546414B1B6813F0020FD2D0FFF792FA2B
:10232000401B0228F5D9032016E13C4B0022C3F8DC
:10233000802EFFF787FA0546374B5B6F13F0020FCD
:1023400006D0FFF77FFA401B0228F5D9032003E1EE
:10235000236813F0040F77D02F4B1B6C13F0805FB2
:1023600033D1002301932C4B1A6C42F080521A6433
:102370001B6C03F080530193019B0125284B1B68C4
:1023800013F4807F23D0A368012B34D0052B38D0E1
:10239000214B1A6F22F001021A671A6F22F0040211
:1023A0001A67A368002B3DD0FFF74CFA06461A4B7C
:1023B0001B6F13F0020F46D1FFF744FA801B41F266
:1023C00088339842F3D90320C6E00025D6E7144AA3
:1023D000136843F480731360FFF734FA0646104B1A
:1023E0001B6813F4807FCED1FFF72CFA801B0228E4
:1023F000F5D90320B0E0084A136F43F001031367D7
:10240000CFE7054B1A6F42F004021A671A6F42F0C9
:1024100001021A67C5E700BF0038024000004742CA
:1024200000700040FFF70EFA0646524B1B6F13F088
:10243000020F08D0FFF706FA801B41F2883398425A
:10244000F3D9032088E0EDB9A369002B00F0838065
:10245000484A926802F00C02082A51D0022B17D089
:10246000454B00221A66FFF7EDF90446414B1B6805
:1024700013F0007F42D0FFF7E5F9001B0228F5D9E1
:10248000032069E03B4A136C23F080531364DBE7BD
:10249000394B00221A66FFF7D5F90546354B1B6804
:1024A00013F0007F06D0FFF7CDF9401B0228F5D9C5
:1024B000032051E0E369226A1343626A43EA82130C
:1024C000A26A5208013A43EA0243E26A43EA02631B
:1024D000284A5360284B01221A66FFF7B3F90446D5
:1024E000244B1B6813F0007F06D1FFF7ABF9001BEC
:1024F0000228F5D903202FE000202DE000202BE05A
:10250000012B2BD01B4B5B6803F48001E2699142E5
:1025100026D103F03F02216A8A4223D1616A47F63D
:10252000C0721A40B2EB811F1ED103F44031A26A7F
:102530005208013AB1EB024F18D103F07063E26A1E
:10254000B3EB026F14D1002006E001207047012098
:1025500002E0012000E0002002B070BD0120FBE796
:102560000120F9E70120F7E70120F5E70120F3E773
:102570000120F1E7003802400000474208B5314B26
:102580009B6803F00C03042B57D0082B57D12D4B1D
:102590005A6802F03F025B6813F4800F2AD0294B7F
:1025A0005968C1F3881C4FEA4C11B1EB0C006EEB7B
:1025B0000E0E4FEA8E1343EA90638101091A63EB12
:1025C0000E03DB0043EA5173C90011EB0C0C43F11D
:1025D0000003590200234FEA4C2041EADC51FDF789
:1025E000DBFF184B5B68C3F3014301335B00B0FBB7
:1025F000F3F025E0134B5968C1F3881C4FEA4C11E6
:10260000B1EB0C006EEB0E0E4FEA8E1343EA9063B3
:102610008101091A63EB0E03DB0043EA5173C90021
:1026200011EB0C0C43F10003990200234FEA8C20BC
:1026300041EA9C51FDF7B0FFD3E7034800E00348AF
:1026400008BD00BF0038024000127A000024F400E8
:10265000002800F09B8070B50D4604464F4B1B6868
:1026600003F007038B4208D2CBB24C4A13701368B5
:1026700003F007038B4240F08B80236813F0020FB6
:1026800017D013F0040F04D0454A936843F4E05385
:102690009360236813F0080F04D0414A936843F411
:1026A000604393603E4A936823F0F003A1680B43B4
:1026B0009360236813F0010F32D06368012B21D09F
:1026C0009A1E012A25D9364A126812F0020F61D0EB
:1026D00033498A6822F0030213438B60FFF7B2F894
:1026E00006462F4B9B6803F00C036268B3EB820F26
:1026F00016D0FFF7A7F8801B41F288339842F0D933
:10270000032042E0264A126812F4003FE0D1012083
:102710003BE0234A126812F0007FD9D1012034E057
:102720001E4B1B6803F00703AB4207D9EAB21B4BF1
:102730001A701B6803F00703AB422DD1236813F016
:10274000040F06D0164A936823F4E053E1680B4364
:102750009360236813F0080F07D0114A936823F49D
:102760006043216943EAC1039360FFF707FF0C4B05
:102770009B68C3F303130B4AD35CD8400A4B186021
:102780000A4B1868FFF712F8002070BD012070474F
:102790000120FAE70120F8E70120F6E7003C0240BB
:1027A00000380240103A0008000000200800002015
:1027B000014B1868704700BF0000002070470028D8
:1027C0005AD010B50446436A33B94368B3F5827FE3
:1027D00005D00023C36102E00023036143610023AD
:1027E000A36294F85130002B40D0022384F851307A
:1027F0002268136823F040031360636803F4827354
:10280000A26802F404421343E26802F40062134334
:10281000226902F002021343626902F001021343CB
:10282000A26902F400721343E26902F03802134312
:10283000226A02F080021343A26A02F40052216865
:1028400013430B60638B03F00403626A02F010020F
:10285000216813434B602268D36923F40063D3617A
:1028600000206065012384F8513010BD84F8503099
:102870002046FFF7A3FFB8E701207047C16070470B
:10288000C06880B270478368194201D00120704748
:102890000020704730B4036A23F001030362036A27
:1028A0004268846924F073040D682C4323F0020C01
:1028B0008B6843EA0C03104DA84203D005F58065F0
:1028C000A84205D123F00803CD682B4323F004036D
:1028D000094DA84203D005F58065A84205D122F430
:1028E00040724D692A438D692A43426084614A6877
:1028F0004263036230BC70470000014030B4036A99
:1029000023F480730362036A4268C46924F0730C81
:102910000C6844EA0C0523F400738C6843EA042332
:10292000114CA04203D004F58064A04206D123F4E8
:102930000063CC6843EA042323F480630A4CA0427A
:1029400003D004F58064A04207D122F440524C69C0
:1029500042EA04128C6942EA04124260C5614A6884
:10296000C263036230BC70470000014030B4036AA8
:1029700023F480530362036A4468C26922F4E64286
:102980000D6842EA052223F400538D6843EA0533BB
:10299000094DA84203D005F58065A84204D124F46E
:1029A00080444D6944EA85144460C2614A68026407
:1029B000036230BC704700BF0000014010B4036ADE
:1029C000046A24F001040462846924F0F00C4CEAE7
:1029D000021223F00A030B43826103625DF8044B89
:1029E000704710B4046A24F0100404628469036A16
:1029F00024F4704C4CEA023223F0A00343EA0113A2
:102A0000826103625DF8044B7047836823F07003B2
:102A10000B4343F007038360704770470368304AF5
:102A2000904212D0B0F1804F0FD0A2F57C4290427C
:102A30000BD002F58062904207D002F5806290428E
:102A400003D002F57842904203D123F070034A6824
:102A50001343234A90422AD0B0F1804F27D0A2F5E9
:102A60007C42904223D002F5806290421FD002F552
:102A7000806290421BD002F57842904217D002F556
:102A80007052904213D002F5806290420FD002F54E
:102A9000806290420BD0A2F59832904207D002F5A6
:102AA0008062904203D002F58062904203D123F409
:102AB0004073CA68134323F080034A6913430360D9
:102AC0008B68C3620B688362054B984203D003F5A1
:102AD0008063984201D10B6903630123436170470E
:102AE0000000014040B310B5044690F83D30F3B10A
:102AF000022384F83D30214651F8040BFFF78EFF86
:102B0000012384F8463084F83E3084F83F3084F85E
:102B1000403084F8413084F8423084F8433084F8FF
:102B2000443084F8453084F83D30002010BD80F8F2
:102B30003C30FFF772FFDBE70120704730B4036AD7
:102B400023F010030362036A4468826922F4E642B8
:102B50000D6842EA052223F020038D6843EA05133D
:102B6000114DA84203D005F58065A84206D123F097
:102B70008003CD6843EA051323F040030A4DA842C1
:102B800003D005F58065A84207D124F440644D695F
:102B900044EA85048D6944EA8504446082614A6898
:102BA0008263036230BC70470000014038B590F882
:102BB0003C30012B66D004460D46012380F83C30A2
:102BC0000C2A5AD8DFE802F0075959591B595959AC
:102BD0003059595944000068FFF75CFE2268936938
:102BE00043F0080393612268936923F0040393611F
:102BF0002268936929690B43936100203EE00068D5
:102C0000FFF79CFF2268936943F400639361226895
:102C1000936923F48063936122689369296943EA85
:102C200001239361002029E00068FFF767FE226816
:102C3000D36943F00803D3612268D36923F0040306
:102C4000D3612268D36929690B43D361002015E061
:102C50000068FFF78BFE2268D36943F40063D361F9
:102C60002268D36923F48063D3612268D369296918
:102C700043EA0123D361002000E00120002384F80F
:102C80003C3038BD0220FCE710B4846824F47F4C4B
:102C900042EA03220A4342EA0C0282605DF8044BD6
:102CA000704790F83C30012B78D010B504460123D2
:102CB00080F83C30022380F83D300268936823F4AA
:102CC0007F4323F0770393600B68602B4CD029D8A7
:102CD000402B54D00CD9502B22D1CA6849680068C7
:102CE000FFF76CFE50212068FFF78FFE002005E003
:102CF000202B0DD009D9302B0AD00120012384F8D4
:102D00003D30002384F83C3010BD0BB1102B05D1B1
:102D100019462068FFF779FE0020EFE70120EDE774
:102D20000120EBE7B3F5805F34D0B3F5005F0CD141
:102D3000CB684A6889680068FFF7A6FF2268936835
:102D400043F4804393600020D8E7702B24D1CB68F4
:102D50004A6889680068FFF797FF2268936843F024
:102D6000770393600020C9E7CA6849680068FFF7E5
:102D700038FE60212068FFF748FE0020BEE7CA68E1
:102D800049680068FFF71AFE40212068FFF73DFE02
:102D90000020B3E70020B1E70120AFE70220704731
:102DA00001F01F01012303FA01FC036A23EA0C036B
:102DB0000362036A02FA01F10B43036270470000E9
:102DC00010B504460846002942D194F83E30DBB2E3
:102DD000013B18BF0123002B6ED1002851D10223E3
:102DE00084F83E30012201462068FFF7D9FF2368AE
:102DF000334A934203D002F58062934203D15A6C66
:102E000042F400425A6423682D4A934249D0B3F1F8
:102E1000804F46D0A2F57C42934242D002F58062B8
:102E200093423ED002F5806293423AD002F5784256
:102E3000934236D002F57052934232D0A2F59432CA
:102E400093422ED01A6842F001021A60002032E04C
:102E5000042908D008290DD094F84130DBB2013B99
:102E600018BF0123B7E794F83F30DBB2013B18BF2E
:102E70000123B0E794F84030DBB2013B18BF0123D7
:102E8000A9E7042805D0082807D0022384F8413098
:102E9000A8E7022384F83F30A4E7022384F84030F7
:102EA000A0E79A6802F00702062A07D01A6842F0E3
:102EB00001021A60002010BD0120FCE70020FAE7A3
:102EC0000000014001F01F01042303FA01FC036A22
:102ED00023EA0C030362036A02FA01F10B43036263
:102EE0007047000010B50446084600293BD194F80D
:102EF0004230DBB2013B18BF0123002B67D1002811
:102F00004AD1022384F84230042201462068FFF7A8
:102F1000D9FF2268536C43F40043536423682E4A5C
:102F2000934249D0B3F1804F46D0A2F57C42934200
:102F300042D002F5806293423ED002F58062934215
:102F40003AD002F57842934236D002F5705293425D
:102F500032D0A2F5943293422ED01A6842F0010288
:102F60001A60002032E0042908D008290DD094F816
:102F70004530DBB2013B18BF0123BEE794F8433074
:102F8000DBB2013B18BF0123B7E794F84430DBB252
:102F9000013B18BF0123B0E7042805D0082807D05B
:102FA000022384F84530AFE7022384F84330ABE7CF
:102FB000022384F84430A7E79A6802F00702062A41
:102FC00007D01A6842F001021A60002010BD0120EB
:102FD000FCE70020FAE700BF0000014090F83C3019
:102FE000012B3DD010B4012380F83C30022380F83F
:102FF0003D3003685A689C6822F0700C0A6842EA07
:103000000C025A600368174A93421AD0B3F1804FFA
:1030100017D0A2F57C42934213D002F5806293420E
:103020000FD002F5806293420BD002F578429342B2
:1030300007D002F57052934203D0A2F59432934226
:1030400004D124F080044A6814439C60012380F872
:103050003D30002380F83C3018465DF8044B704743
:10306000022070470000014090F83C30012B22D034
:10307000012380F83C30CB6823F440738A68134303
:1030800023F480634A68134323F400630A681343FC
:1030900023F480530A69134323F400534A6913430A
:1030A00023F48043CA69134302685364002380F801
:1030B0003C3018467047022070470268D36823F4FA
:1030C0009073D3600268536923F001035361202396
:1030D00080F83A30704790F83930DBB2212B01D0BC
:1030E000022070478368B3F5805F17D0036A5A1CCB
:1030F00002621A7803685A60C38C9BB2013B9BB290
:10310000C3844BB90268D36823F08003D36002689C
:10311000D36843F04003D36000207047036A1B88E4
:103120000268C3F30803536003691BB9036A0233DF
:103130000362E1E7036A01330362DDE7704708B524
:103140000168CA6822F04002CA60202280F8392053
:10315000FFF7F4FF002008BD704708B590F83A303B
:10316000DBB2222B46D18368B3F5805F0FD00369B1
:103170000BBB03685A68836A591C81621A70C38D3D
:103180009BB2013B9BB2C385F3B1002008BD826AAC
:10319000036943B903685B68C3F308031380836A58
:1031A00002338362EBE703685B68DBB21380836AF8
:1031B00001338362E3E703685B68826A511C8162C2
:1031C00003F07F031370DAE70268D36823F020036B
:1031D000D3600268D36823F48073D36002685369B4
:1031E00023F001035361202380F83A30FFF7B4FF46
:1031F0000020CBE70220C9E77047000010B5044665
:1032000002681368D168526913F00F0005D113F0FA
:10321000200F02D011F0200F13D128B112F00102BB
:1032200013D111F4907F10D113F0800F02D011F060
:10323000800F69D113F0400F02D011F0400F67D119
:1032400010BD2046FFF789FFFAE713F0010F06D003
:1032500011F4807F03D0E06B40F00100E06313F0D5
:10326000040F04D01AB1E06B40F00200E06313F0E9
:10327000020F04D01AB1E06B40F00400E06313F0D9
:10328000080F04D01AB1E26B42F00802E263E26B6D
:10329000002AD5D013F0200F02D011F0200F21D139
:1032A00023685B6903F04003E26B12F0080F00D162
:1032B00023B32046FFF701FF23685A6912F0400F3D
:1032C00018D05A6922F040025A61636B73B1124AF6
:1032D0001A65606BFEF74BFE0028B1D0606B036D82
:1032E0009847ADE72046FFF738FFD9E72046FFF7BC
:1032F00083FFA5E72046FFF77FFFA1E72046FFF702
:103300007BFF0023E3639BE72046FFF7E4FE97E79C
:103310002046FFF714FF93E71D33000808B5806BC4
:103320000023C385C384FFF767FF08BD43684B6074
:103330009A688A605160996008610368013303608C
:1033400070470369416882688A60416851605A68C1
:10335000824206D0002202611A68013A1A60186897
:10336000704782685A60F5E7000000000000000026
:10337000074B19680868B0E8F04F80F30988BFF37D
:103380006F8F4FF0000080F311887047AFF300801B
:10339000B80E002000000000000000000000000047
:1033A000EFF30980BFF36F8F154B1A681EF0100FF3
:1033B00008BF20ED108A20E9F04F10602DE90900C8
:1033C0004FF0500080F31188BFF34F8FBFF36F8F22
:1033D00000F0D0F84FF0000080F3118809BC1968A4
:1033E0000868B0E8F04F1EF0100F08BFB0EC108A6C
:1033F00080F30988BFF36F8F704700BFAFF3008081
:10340000B80E002008B54FF0500383F31188BFF3C6
:103410006F8FBFF34F8F00F021F828B14FF0E023FA
:103420004FF08052C3F8042D002383F3118808BDA8
:10343000084B1B681B6823B9074B4FF0FF321A601B
:103440007047044B1B68DB68DB685A68024B1A60E4
:10345000704700BFBC0E0020580F0020F8B53A4B53
:103460001B68002B69D1394B1D6801351D60C5B93A
:10347000374B1B681B6843B14FF0500383F311882F
:10348000BFF36F8FBFF34F8FFEE7314A1168314BA7
:10349000186810601960304A136801331360FFF731
:1034A000C7FF2E4B1B68AB423DD900272C4B1B6836
:1034B000DB6A03EB83039A002A4B9B58012B00D94C
:1034C0000127294B1B68002B3CD001273AE001273C
:1034D0001F4B1B681B6843B31D4B1B68DB68DC6814
:1034E00063689D4226D3261D3046FFF72AFFA36A54
:1034F0001BB104F11800FFF724FFE36A01229A4090
:103500001A49086802430A6003EB83039A003146B4
:1035100014481044FFF70AFFE26A114B1B68DB6A8C
:103520009A42D4D2D4E70027D2E70C4B4FF0FF32B7
:103530001A60BBE7094A1360B8E70D4A1368013304
:10354000136000273846F8BD500F0020680F002098
:10355000BC0E0020C00E00205C0F0020580F002081
:10356000B80E0020C40E00206C0F0020540F002065
:10357000600F0020204B1B681BB1204B01221A60FA
:1035800070471E4B00221A601D4B1B68B3FA83F371
:10359000DBB2C3F11F0303EB83018A0019498A5888
:1035A00042B94FF0500383F31188BFF36F8FBFF31D
:1035B0004F8FFEE7134903EB830082000A445068F3
:1035C0004068506003EB830C4FEA8C0208321144D0
:1035D000884209D003EB83039A000A4B13445B68CB
:1035E000DA68094B1A607047406862469100054AE4
:1035F0000A445060EEE700BF500F00206C0F00201F
:10360000540F0020C40E0020B80E0020054B1B688C
:1036100033B1054B1B680BB1002070470220704787
:1036200001207047640F0020500F002070B50D4E30
:103630000D4D761BB61006D0002455F8043B01341E
:103640009847A642F9D1094E094D761B00F0D4F8EF
:10365000B61006D0002455F8043B01349847A64222
:10366000F9D170BD2C3A00082C3A0008343A000811
:103670002C3A0008830730B548D0541E002A3FD0AA
:10368000CAB2034601E0013C3AD303F8012B9D077F
:10369000F9D1032C2DD9CDB245EA05250F2C45EAE9
:1036A000054536D9A4F1100222F00F0C03F1200ECB
:1036B000E6444FEA121C03F1100242E9045542E9C4
:1036C000025510327245F8D10CF1010214F00C0FC2
:1036D00003EB021204F00F0C13D0ACF1040323F03F
:1036E00003030433134442F8045B9342FBD10CF010
:1036F00003042CB1CAB21C4403F8012B9C42FBD139
:1037000030BD64461346002CF4D1F9E70346144655
:10371000BFE71A46A446E0E7024B13B1024800F0A7
:1037200005B8704700000000393700080023014643
:103730001A46184600F01AB838B5084B084D5B1BFE
:103740009C1007D0043B1D44013C55F804399847B0
:10375000002CF9D1BDE8384000F054B8383A0008E0
:10376000343A0008704700BF704700BF2DE9F047AA
:10377000DFF880A00646DAF8000098460F4691462A
:10378000FFF7F0FF1A4B1B68D3F8484124B3656874
:103790001F2D26DC5EB96B1C0235DAF80000636071
:1037A00044F82570FFF7E0FF0020BDE8F08704EB48
:1037B00085010123C1F88890D4F88821AB401A43D1
:1037C000022EC4F88821C1F80881E4D1D4F88C21F4
:1037D0001343C4F88C31DEE703F5A674C3F84841FF
:1037E000D5E7DAF80000FFF7BFFF4FF0FF30DCE766
:1037F000203A000838040020F8B500BFF8BC08BC27
:103800009E467047F8B500BFF8BC08BC9E4670479E
:103810000000C90092015B022403ED03B6047F059A
:1038200048061107D907A2086A09330AFB0AC40B24
:103830008C0C540D1C0EE30EAB0F72103A110112DA
:10384000C8128F1355141C15E215A8166E173318DD
:10385000F918BE19821A471B0B1CCF1C931D571E4B
:103860001A1FDD1F9F2061212322E522A623672442
:103870002825E825A82667272628E528A329612AE0
:103880001F2BDC2B992C552D112ECC2E872F413040
:10389000FB30B5316E322633DF3396344D35043686
:1038A000BA366F372438D9388C39403AF23AA53BCA
:1038B000563C073DB83D683E173FC53F7340214128
:1038C000CE417A422543D0437A442445CD457546BE
:1038D0001C47C34769480F49B449584AFB4A9D4BA6
:1038E0003F4CE04C814D204EBF4E5D4FFB4F9750FB
:1038F0003351CE51685202539B533254C9546055D0
:10390000F5558A561D57B0574258D3586459F35944
:10391000825A0F5B9C5B285CB35C3E5DC75D4F5E6B
:10392000D75E5D5FE35F6860EB606E61F06171625E
:10393000F1627063EE636C64E8646365DD6556662E
:10394000CF664667BC673268A66819698B69FD69EE
:103950006D6ADC6A4A6BB76B236C8E6CF86C616DB8
:10396000C96D306E966EFB6E5E6FC16F2270837094
:10397000E27040719D71F9715472AE7207735E739B
:10398000B5730A745F74B27404755575A575F375D3
:1039900041768D76D87622776B77B377FA773F7852
:1039A0008478C77809794A798979C879057A417A1A
:1039B0007C7AB67AEE7A267B5C7B917BC57BF87B42
:1039C000297C597C887CB67CE37C0E7D397D627DC8
:1039D000897DB07DD57DFA7D1D7E3E7E5F7E7E7EBB
:1039E0009C7EB97ED57EEF7E097F217F377F4D7F1C
:1039F000617F747F867F977FA67FB47FC17FCD7FF5
:103A0000D87FE17FE97FF07FF57FF97FFD7FFE7F43
:103A1000000000000000000001020304060708097E
:043A20001000002072
:083A2400A4CBFF7F01000000AC
:083A2C0019370008B50100087C
:043A340091010008F4
:103A38000024F40001000000100000000000000055
:103A480000000000FC02002064030020CC030020DA
:103A5800000000000000000000000000000000005E
:103A6800000000000000000000000000000000004E
:103A7800000000000000000000000000000000003E
:103A8800000000000000000000000000000000002E
:103A9800000000000000000000000000000000001E
:103AA800000000000000000000000000000000000E
:103AB80000000000000000000000000000000000FE
:103AC80000000000000000000000000000000000EE
:103AD80000000000000000000000000000000000DE
:103AE80000000000000000000100000000000000CD
:103AF8000E33CDAB34126DE6ECDE05000B00000092
:103B080000000000000000000000000000000000AD
:103B1800000000000000000000000000000000009D
:103B2800000000000000000000000000000000008D
:103B3800000000000000000000000000000000007D
:0C3E68000000000000000000700F0020AF
:04000005080017597F
:00000001FF
