:020000040800F2
:1000000000000220D9110008491100084B11000816
:100010004D1100084F1100085111000800000000A8
:10002000000000000000000000000000112A00088D
:100030005311000800000000412A00085511000873
:1000400029120008291200082912000829120008A4
:100050002912000829120008291200082912000894
:100060002912000829120008291200082912000884
:100070002912000829120008291200082912000874
:100080002912000829120008291200082912000864
:100090002912000829120008291200082912000854
:1000A00029120008B51100082912000829120008B9
:1000B0002912000829120008291200082912000834
:1000C0002912000829120008291200082912000824
:1000D00029120008711100082912000829120008CD
:1000E0002912000829120008291200082912000804
:1000F00029120008291200082912000829120008F4
:1001000029120008291200082912000829120008E3
:1001100029120008291200082912000829120008D3
:1001200029120008291200082912000829120008C3
:1001300029120008291200082912000829120008B3
:1001400029120008291200082912000829120008A3
:100150002912000829120008291200082912000893
:100160002912000829120008291200082912000883
:1001700029120008291200082912000800000000B6
:080180002912000829120008F1
:1001900010B5054C237833B9044B13B10448AFF3C1
:1001A00000800123237010BD4C04002000000000DB
:1001B000F83A000808B5034B1BB103490348AFF3F5
:1001C000008008BD0000000050040020F83A00083C
:1001D00053B94AB9002908BF00281CBF4FF0FF31AE
:1001E0004FF0FF3000F074B9ADF1080C6DE904CEAA
:1001F00000F006F8DDF804E0DDE9022304B0704702
:100200002DE9F047089D04468E46002B4DD18A42C9
:10021000944669D9B2FA82F252B101FA02F3C2F1FC
:10022000200120FA01F10CFA02FC41EA030E94408D
:100230004FEA1C48210CBEFBF8F61FFA8CF708FBAE
:1002400016E341EA034306FB07F199420AD91CEB86
:10025000030306F1FF3080F01F81994240F21C81B8
:10026000023E63445B1AA4B2B3FBF8F008FB103300
:1002700044EA034400FB07F7A7420AD91CEB040435
:1002800000F1FF3380F00A81A74240F20781644405
:10029000023840EA0640E41B00261DB1D44000238A
:1002A000C5E900433146BDE8F0878B4209D9002DEE
:1002B00000F0EF800026C5E9000130463146BDE878
:1002C000F087B3FA83F6002E4AD18B4202D38242E2
:1002D00000F2F980841A61EB030301209E46002D91
:1002E000E0D0C5E9004EDDE702B9FFDEB2FA82F2E6
:1002F000002A40F09280A1EB0C014FEA1C471FFA44
:100300008CFE0126200CB1FBF7F307FB131140EA2A
:1003100001410EFB03F0884208D91CEB010103F1F7
:10032000FF3802D2884200F2CB804346091AA4B2B9
:10033000B1FBF7F007FB101144EA01440EFB00FE8D
:10034000A64508D91CEB040400F1FF3102D2A645F2
:1003500000F2BB800846A4EB0E0440EA03409CE791
:10036000C6F12007B34022FA07FC4CEA030C20FA3E
:1003700007F401FA06F31C43F9404FEA1C4900FA5E
:1003800006F3B1FBF9F8200C1FFA8CFE09FB1811DB
:1003900040EA014108FB0EF0884202FA06F20BD94E
:1003A0001CEB010108F1FF3A80F08880884240F29E
:1003B0008580A8F102086144091AA4B2B1FBF9F0E2
:1003C00009FB101144EA014100FB0EFE8E4508D9DD
:1003D0001CEB010100F1FF346CD28E456AD9023862
:1003E000614440EA0840A0FB0294A1EB0E01A14247
:1003F000C846A64656D353D05DB1B3EB080261EBB5
:100400000E0101FA07F722FA06F3F1401F43C5E98E
:10041000007100263146BDE8F087C2F12003D840C4
:100420000CFA02FC21FA03F3914001434FEA1C4706
:100430001FFA8CFEB3FBF7F007FB10360B0C43EAF8
:10044000064300FB0EF69E4204FA02F408D91CEBA8
:10045000030300F1FF382FD29E422DD902386344A6
:100460009B1B89B2B3FBF7F607FB163341EA034146
:1004700006FB0EF38B4208D91CEB010106F1FF3895
:1004800016D28B4214D9023E6144C91A46EA00468C
:1004900038E72E46284605E70646E3E61846F8E61E
:1004A0004B45A9D2B9EB020864EB0C0E0138A3E767
:1004B0004646EAE7204694E74046D1E7D0467BE748
:1004C000023B614432E7304609E76444023842E7C0
:1004D000704700BF00B589B000220192144B196B20
:1004E00041F008011963196B01F0080101910199AC
:1004F0000292196B41F0100119631B6B03F010039A
:100500000293029B4FF4807303930123049302230D
:100510000693059203A9074800F088FF042303937C
:1005200003A9054800F082FF09B05DF804FB00BF95
:1005300000380240000C02400010024008B50122C1
:100540004FF48071014801F063F808BD000C0240CF
:1005500008B501220421024801F05AF808BD00BF85
:100560000010024010B50C46104B1880C0F3C32396
:10057000022B06D00E4B1C80C4F3C323032B0AD0DE
:1005800010BD01460B4800F061FD084B19880A4870
:1005900000F05CFDEEE72146064800F057FD044BF5
:1005A0001988054800F052FDEAE700BF6A04002000
:1005B0006C04002000300140003C004008B500F011
:1005C00023FDFFF787FFFFF7B9FFFFF7C1FF4FF4E8
:1005D000FA7000F07DFE41F6D210064B188041F60D
:1005E0000801054B1980FFF7BDFF044B4FF4104283
:1005F0001A8008BD6A0400206C04002068040020F2
:1006000010B58AB0002200922C4B196B41F0020108
:100610001963196B01F00201009100990192196BA5
:1006200041F020011963196B01F02001019101993A
:100630000292196B41F020011963196B01F020013E
:10064000029102990392196B41F020011963196B11
:1006500001F02001039103990492196B41F02001EC
:1006600019631B6B03F020030493049B022305937F
:100670000692079305A9124800F0D8FE4FF40063D4
:100680000593104C05A9204600F0D0FE4FF400530E
:10069000059305A9204600F0C9FE4FF48043059359
:1006A00005A9204600F0C2FE4FF40043059305A9BA
:1006B000204600F0BBFE0AB010BD00BF003802406B
:1006C00000040240001402402DE9F0438BB00022E8
:1006D00001922A4B196B41F040011963196B01F02B
:1006E0004001019101990292196B41F04001196397
:1006F000196B01F04001029102990392196B41F0CC
:1007000010011963196B01F0100103910399049210
:100710001A6B42F010021A631B6B03F01003049370
:10072000049B012605960696079603230893144D0D
:1007300005A9284600F07AFE4FF00209CDF8149082
:1007400005A9284600F072FE4FF08008CDF814800D
:100750000C4C05A9204600F069FE4FF48077059700
:1007600005A9204600F062FEAE61C5F81890C4F8F5
:100770001880A7610BB0BDE8F08300BF00380240CD
:100780000018024000100240F0B58DB00024019422
:100790003D4B1A6B42F001021A631A6B02F0010220
:1007A0000192019A02941A6B42F002021A631A6BC8
:1007B00002F002020292029A03941A6B42F00102C2
:1007C0001A631A6B02F001020392039A04941A6BE3
:1007D00042F002021A631A6B02F002020492049AB7
:1007E00005941A6B42F001021A631A6B02F00102BF
:1007F0000592059A06941A6B42F002021A631B6B6B
:1008000003F002030693069B099402260A960896B3
:1008100001250B954FF4005307931C4F07A9384649
:1008200000F004FE4FF48043079307A9384600F018
:10083000FDFD4FF40043079307A9384600F0F6FD8D
:1008400008964FF4807307930B95114E07A9304615
:1008500000F0ECFD4FF4007307930B9507A93046A9
:1008600000F0E4FD4FF4806307930B9507A9304631
:1008700000F0DCFD22462946192000F055FD192024
:1008800000F08AFD0DB0F0BD0038024000040240C7
:1008900000000240F0B583B000250195334B5A6C3F
:1008A00042F001025A645B6C03F001030193019B67
:1008B0002F4C304B236041F26703E3606560256194
:1008C0006027A76001236361204601F05DFC2A498F
:1008D0004FF480560E60204601F035FD27490D602B
:1008E0004D60204601F0CCFE25490D604D608D60C5
:1008F000CD600E614FF400534B61CD61204601F095
:1009000005FF204E376040F634037360B560F56034
:100910004FF480737361B5612A463146204601F079
:1009200097FC04223146204601F092FC0822314611
:10093000204601F08DFC2946204601F093FD294612
:10094000204601F021FE0421204601F08BFD042108
:10095000204601F019FE0821204601F083FD082100
:10096000204601F011FE03B0F0BD00BF0038024088
:10097000C40400200000014090040020A0040020D6
:1009800070040020A804002008B5FFF7FDFEFFF763
:1009900081FF08BDB5EEC00AF1EE10FA29DD2F4B3C
:1009A000D3ED007A67EE807AB3EE087AF4EEC77A78
:1009B000F1EE10FA01DDF0EE477AF3EE086A87EE09
:1009C000A67A274B83ED007A9FED267AC7EE007A50
:1009D000254BC3ED007ADFED256A86EEA77A244B1E
:1009E00083ED007A234B244A1A60244B244A1A6070
:1009F0007047B5EEC00AF1EE10FA05D400231A4A8A
:100A000013601B4A13607047144BD3ED007A60EEFD
:100A1000677AB3EE087AF4EEC77AF1EE10FA01DDE8
:100A2000F0EE477AF3EE086A87EEA67A0C4B83ED78
:100A3000007A9FED147AC7EE007A0B4BC3ED007A73
:100A4000DFED0A6A86EEA77A094B83ED007A094B3F
:100A50000B4A1A60094B084A1A60704710000020C0
:100A60000C05002000409C4604000020DA0FC9401D
:100A70001005002008000020910A06400C0000200C
:100A8000910A06C000409CC6F8B52DED048B0646C1
:100A90002C4B93ED009A2C4FD7ED008A29EE289A23
:100AA000B0EE490A02F0F8F9284B93ED008A60EEA7
:100AB000087A78EE277ADFED269A67EEA97AFCEEBF
:100AC000E77A17EE903A9DB2224B93ED000A39EE89
:100AD000000A02F0E1F968EE007A78EE277A67EE14
:100AE000A97AFCEEE77A17EE903A9CB21A4B93ED96
:100AF000000A39EE000A02F0CFF928EE000A38EEBB
:100B0000008A28EE298ABCEEC88A18EE103A9BB2F9
:100B100032685563326894633268D363F7EE007AC3
:100B200078EEA78AC7ED008A0C4BD3ED007AF4EE7D
:100B3000E78AF1EE10FA01DB00223A60BDEC048B8B
:100B4000F8BD00BF10050020180500200C0500208E
:100B500000400345080000200C0000200400002095
:100B6000064A13680133136042F20F72934204D9AC
:100B70000023024A1360024A1360704714050020E4
:100B8000000000200C4B93F800C00CF101035A4206
:100B900003F07F0302F07F0258BF5342DBB2074AE3
:100BA00012789A4205D000F80C10034A1370002006
:100BB00070470120704700BFDD050020DC050020E4
:100BC00072B6FEE710B594B000240F9410941194FF
:100BD000129413943022214603A802F09BF801944A
:100BE0002F4B1A6C42F080521A641B6C03F0805336
:100BF0000193019B02942B4B1A6842F480421A60C5
:100C00001B6803F480430293029B012303934FF478
:100C100080330493022309934FF480020A9208223E
:100C20000B924FF4A8720C920D9304230E9303A819
:100C300000F0F4FC48BB0F230F9302231093002312
:100C400011934FF4A05312934FF480531393052143
:100C50000FA800F049FFD0B900F04EFB41F20103AC
:100C6000984216D000F0F0FF0F4BA3FB0030800934
:100C700000F0A0FB042000F0B1FB002211464FF071
:100C8000FF3000F051FB14B010BDFFF799FFFFF7E4
:100C900097FF064A136843F480731360E2E700BFCE
:100CA0000038024000700040D34D6210003C02400A
:100CB00010B52DED028B00F0DFFAFFF783FFFFF791
:100CC00003FDFFF77BFCFFF79BFCFFF75DFE2C4C61
:100CD0000021204601F0C6FB0021204601F054FC13
:100CE0000421204601F0BEFB0421204601F04CFC0B
:100CF0000821204601F0B6FB0821204601F044FC03
:100D0000204601F0D7F840F6B83000F0E1FAB1EE35
:100D1000048A06E01B4BD3ED007AF8EEE77A38EE52
:100D2000678A0A2000F0D4FA164BD3ED007AF8EE69
:100D3000E77A38EE278AB0EE480AFFF72BFEDFEDA0
:100D4000127AB4EEE78AF1EE10FA06DADFED0F7AE6
:100D5000B4EEE78AF1EE10FA02D80D4B0D4A1A6094
:100D6000DFED097AB4EEE78AF1EE10FAD2DADFEDC0
:100D7000077AB4EEE78AF1EE10FAD2D8CAE700BFDC
:100D8000C40400200000002000007042000070C277
:100D900010000020CDCC4C3EF0B591B00024019461
:100DA0002E4B5A6C42F480525A645A6C02F48052B0
:100DB0000192019A02941A6B42F001021A631A6BB3
:100DC00002F001020292029A03941A6B42F00102AD
:100DD0001A631A6B02F001020392039A04941A6BCD
:100DE00042F001021A631A6B02F001020492049AA3
:100DF00005941A6B42F008021A631B6B03F0080398
:100E00000593059B20230B9302250C950E950D94BD
:100E100005230F93124E0BA9304600F007FB402329
:100E20000B930BA9304600F001FB80230B930BA919
:100E3000304600F0FBFA4FF48066069601270797CC
:100E400009950894074C06A9204600F0EFFA3A46A7
:100E50003146204600F0DCFB11B0F0BD0038024006
:100E600000000240000C0240F0B591B00024019453
:100E70002E4B1A6C42F400421A641A6C02F40042BF
:100E80000192019A02941A6B42F002021A631A6BE1
:100E900002F002020292029A03941A6B42F00202DA
:100EA0001A631A6B02F002020392039A04941A6BFB
:100EB00042F002021A631A6B02F002020492049AD0
:100EC00005941A6B42F040021A631B6B03F0400357
:100ED0000593059B08230B9302250C950E950D9405
:100EE00006230F93124E0BA9304600F09FFA1023F1
:100EF0000B930BA9304600F099FA20230B930BA912
:100F0000304600F093FA4FF4806606960127079763
:100F100009950894074C06A9204600F087FA3A463E
:100F20003146204600F074FB11B0F0BD003802409D
:100F3000000402400018024010B582B00023019363
:100F4000144A516C41F480515164526C02F4805245
:100F50000192019A104C114A2260A3604FF48272F0
:100F600062600F22E2624FF40062E26023621822A4
:100F7000E2614FF40072A2612361012363612046A4
:100F800000F069FE2268136843F04003136002B06A
:100F900010BD00BF00380240E005002000300140D5
:100FA00010B582B000230193144A116C41F4004142
:100FB0001164126C02F400420192019A104C114A21
:100FC0002260A3604FF4827262600F22E2624FF4EB
:100FD0000062E26023621822E2614FF40072A261B3
:100FE000236101236361204600F035FE2268136807
:100FF00043F04003136002B010BD00BF0038024050
:1010000038060020003C004008B5FFF7C5FEFFF79A
:101010002BFFFFF791FFFFF7C3FF08BD38B504466C
:101020000D460221204600F07AFE0028F9D029461C
:10103000204600F06FFE0121204600F070FE0028DF
:10104000F9D0204600F068FE38BD000070B50C46AF
:10105000284B984227D0284D00224FF48061284623
:1010600000F0D6FA254E21463046FFF7D7FF012281
:101070004FF48061284600F0CBFA0A2000F028F9EE
:1010800000224FF48061284600F0C2FA2146304623
:10109000FFF7C4FF044601224FF48061284600F0A8
:1010A000B7FA204670BD164D00224FF480612846E5
:1010B00000F0AEFA0F4E21463046FFF7AFFF012297
:1010C0004FF48061284600F0A3FA0A2000F000F9EE
:1010D00000224FF48061284600F09AFA21463046FB
:1010E000FFF79CFF044601224FF48061284600F080
:1010F0008FFAD6E70030014000180240003C004063
:10110000000C024000B583B0002200920D4B596CD8
:1011100041F480415964596C01F480410091009977
:101120000192196C41F0805119641B6C03F08053DB
:101130000193019B0F216FF0010000F0F5F803B05F
:101140005DF804FB00380240FEE7FEE7FEE7FEE73D
:10115000FEE7704708B500F0A9F800F04FF901F07C
:10116000A5FD012800D108BD01F09CFCFBE70000B3
:1011700010B50D4B1B685A68DA6812F0200F09D1C0
:10118000094C204601F08EFB2268D36843F020030F
:10119000D36010BD5968C9B20448FFF7F3FC024B95
:1011A0001B68034A1A60EBE71C0500205C05002061
:1011B000DFFFFFEF08B5024800F0C5FE08BD00BF25
:1011C000C4040020034AD2F8883043F47003C2F804
:1011D0008830704700ED00E0DFF834D00D480E494C
:1011E0000E4A002302E0D458C4500433C4188C4281
:1011F000F9D30B4A0B4C002301E013600432A242E6
:10120000FBD3FFF7DFFF01F061FDFFF751FD7047F2
:1012100000000220000000204C040020083F0008CD
:101220004C04002050070020FEE7000010B50446E3
:101230000E4B18784FF47A73B3FBF0F30C4A106836
:10124000B0FBF3F000F0B6F868B90F2C01D901201B
:101250000AE0002221464FF0FF3000F065F8054B10
:101260001C60002000E0012010BD00BF180000201D
:10127000140000201C00002008B50B4B1A6842F433
:1012800000721A601A6842F480621A601A6842F4A6
:1012900080721A60032000F035F80F20FFF7C6FFB8
:1012A000FFF730FF002008BD003C0240034A1168F0
:1012B000034B1B780B441360704700BF900600205F
:1012C00018000020014B1868704700BF90060020EE
:1012D00038B50446FFF7F6FF0546B4F1FF3F02D0EC
:1012E000044B1B781C44FFF7EDFF401BA042FAD3D0
:1012F00038BD00BF18000020014B1868000C704773
:10130000002004E0074AD36823F4E0631B041B0CAD
:10131000000200F4E060034343F0BF6343F4003392
:10132000D360704700ED00E000B5194BDB68C3F3F4
:101330000223C3F1070CBCF1040F28BF4FF0040CCB
:1013400003F1040EBEF1060F18D9033B4FF0FF3E28
:101350000EFA0CFC21EA0C0199400EFA03F322EA82
:101360000303194300280BDB0901C9B200F16040F7
:1013700000F5614080F800135DF804FB0023E5E709
:1013800000F00F000901C9B2024B1954F4E700BF85
:1013900000ED00E014ED00E0002807DB00F01F0284
:1013A000400901239340024A42F82030704700BFB1
:1013B00000E100E00138B0F1807F0BD24FF0E02374
:1013C0005861054AF02182F8231000209861072215
:1013D0001A6170470120704700ED00E0042806D034
:1013E0004FF0E022136923F00403136170474FF0BC
:1013F000E022136943F004031361704708B5FFF757
:10140000AFFB08BD90F83530DBB2022B03D0802350
:10141000436501207047052380F835300268136862
:1014200023F00103136000207047000000230F2BFE
:1014300000F2E48070B582B060E085685E0003244D
:10144000B44025EA0405CC68B4402C438460456868
:1014500025EA02054C68C4F300129A402A43426010
:101460005AE0DC08083450F8246003F007029500C5
:101470000F22AA4026EA020E0A69AA4042EA0E0298
:1014800040F824205CE0072200E0002202FA0EF27D
:101490002A4302345A4D45F824205A4A94686FEA88
:1014A0000C0224EA0C054E6816F4801F01D04CEAA9
:1014B0000405544CA560E46802EA04054E6816F47D
:1014C000001F01D04CEA04054E4CE560646802EA56
:1014D00004054E6816F4003F01D04CEA0405494C5F
:1014E0006560246822404D6815F4803F01D04CEAC5
:1014F0000402444C226001330F2B7DD801229A4014
:101500000C6804EA020C32EA0404F4D14C6804F0DA
:101510000304013C012C90D94A6802F00302032A1B
:1015200009D0C4685D000322AA4024EA02048A6844
:10153000AA402243C2604A6802F00302022A90D005
:1015400004684FEA430E032202FA0EF224EA020470
:101550004A6802F0030202FA0EF2224302604A686D
:1015600012F4403FC7D000220192274A546C44F441
:1015700080445464526C02F480420192019A9C08A7
:10158000A51C1F4A52F8255003F003024FEA820EB1
:101590000F2202FA0EF225EA02051C4A90423FF49D
:1015A00074AF02F5806290421AD002F580629042D8
:1015B00018D002F58062904216D002F58062904207
:1015C00014D002F58062904212D002F580629042FF
:1015D00010D002F5806290423FF455AF082255E7E3
:1015E000012253E7022251E703224FE704224DE78D
:1015F00005224BE7062249E702B070BD704700BFE5
:1016000000380140003C0140003802400000024028
:101610000AB181617047090481617047002800F0B8
:10162000E08170B582B00446036813F0010F3BD02F
:101630009F4B9B6803F00C03042B2CD09C4B9B68A6
:1016400003F00C03082B21D06368B3F5803F4FD023
:10165000B3F5A02F52D0964B1A6822F480321A604C
:101660001A6822F480221A606368002B50D0FFF7BA
:1016700029FE05468E4B1B6813F4003F14D1FFF77B
:1016800021FE401B6428F5D90320B1E1884B5B683B
:1016900013F4800FD8D0864B1B6813F4003F03D09F
:1016A0006368002B00F09F81236813F0020F54D071
:1016B0007F4B9B6813F00C0F3ED07D4B9B6803F073
:1016C0000C03082B33D0E368002B68D0794B012240
:1016D0001A60FFF7F7FD0546754B1B6813F0020F04
:1016E00054D1FFF7EFFD401B0228F5D903207FE11D
:1016F0006F4A136843F480331360B5E76C4B1A6884
:1017000042F480221A601A6842F480321A60ABE711
:10171000FFF7D8FD0546664B1B6813F4003FC3D0A6
:10172000FFF7D0FD401B6428F5D9032060E1604B32
:101730005B6813F4800FC6D15D4B1B6813F0020F7A
:1017400003D0E368012B40F05081594A136823F01D
:10175000F803216943EAC1031360236813F0080FFB
:1017600042D063696BB3534B0122C3F8802EFFF75D
:10177000A9FD05464E4B5B6F13F0020F34D1FFF706
:10178000A1FD401B0228F5D9032031E1484A136826
:1017900023F0F803216943EAC1031360DDE7454BF9
:1017A00000221A60FFF78EFD0546414B1B6813F0BF
:1017B000020FD2D0FFF786FD401B0228F5D9032087
:1017C00016E13C4B0022C3F8802EFFF77BFD054657
:1017D000374B5B6F13F0020F06D0FFF773FD401B12
:1017E0000228F5D9032003E1236813F0040F77D012
:1017F0002F4B1B6C13F0805F33D1002301932C4BD4
:101800001A6C42F080521A641B6C03F080530193EF
:10181000019B0125284B1B6813F4807F23D0A3680C
:10182000012B34D0052B38D0214B1A6F22F0010246
:101830001A671A6F22F004021A67A368002B3DD0C2
:10184000FFF740FD06461A4B1B6F13F0020F46D1FF
:10185000FFF738FD801B41F288339842F3D903200B
:10186000C6E00025D6E7144A136843F4807313607A
:10187000FFF728FD0646104B1B6813F4807FCED17E
:10188000FFF720FD801B0228F5D90320B0E0084AAD
:10189000136F43F001031367CFE7054B1A6F42F054
:1018A00004021A671A6F42F001021A67C5E700BF07
:1018B000003802400000474200700040FFF702FD80
:1018C0000646524B1B6F13F0020F08D0FFF7FAFCCD
:1018D000801B41F288339842F3D9032088E0EDB9A8
:1018E000A369002B00F08380484A926802F00C0242
:1018F000082A51D0022B17D0454B00221A66FFF759
:10190000E1FC0446414B1B6813F0007F42D0FFF717
:10191000D9FC001B0228F5D9032069E03B4A136C6F
:1019200023F080531364DBE7394B00221A66FFF77C
:10193000C9FC0546354B1B6813F0007F06D0FFF746
:10194000C1FC401B0228F5D9032051E0E369226A5B
:101950001343626A43EA8213A26A5208013A43EAD5
:101960000243E26A43EA0263284A5360284B012299
:101970001A66FFF7A7FC0446244B1B6813F0007F90
:1019800006D1FFF79FFC001B0228F5D903202FE0AA
:1019900000202DE000202BE0012B2BD01B4B5B689F
:1019A00003F48001E269914226D103F03F02216AEB
:1019B0008A4223D1616A47F6C0721A40B2EB811F96
:1019C0001ED103F44031A26A5208013AB1EB024F32
:1019D00018D103F07063E26AB3EB026F14D10020F8
:1019E00006E001207047012002E0012000E0002015
:1019F00002B070BD0120FBE70120F9E70120F7E705
:101A00000120F5E70120F3E70120F1E7003802406B
:101A10000000474208B5314B9B6803F00C03042BD0
:101A200057D0082B57D12D4B5A6802F03F025B6804
:101A300013F4800F2AD0294B5968C1F3881C4FEA50
:101A40004C11B1EB0C006EEB0E0E4FEA8E1343EA15
:101A500090638101091A63EB0E03DB0043EA5173C3
:101A6000C90011EB0C0C43F10003590200234FEAAB
:101A70004C2041EADC51FEF7ABFB184B5B68C3F32B
:101A8000014301335B00B0FBF3F025E0134B5968D1
:101A9000C1F3881C4FEA4C11B1EB0C006EEB0E0E3B
:101AA0004FEA8E1343EA90638101091A63EB0E0338
:101AB000DB0043EA5173C90011EB0C0C43F1000346
:101AC000990200234FEA8C2041EA9C51FEF780FBEB
:101AD000D3E7034800E0034808BD00BF00380240D8
:101AE00000127A000024F400002800F09B8070B5FA
:101AF0000D4604464F4B1B6803F007038B4208D288
:101B0000CBB24C4A1370136803F007038B4240F0CA
:101B10008B80236813F0020F17D013F0040F04D04A
:101B2000454A936843F4E0539360236813F0080F29
:101B300004D0414A936843F4604393603E4A9368FB
:101B400023F0F003A1680B439360236813F0010FA7
:101B500032D06368012B21D09A1E012A25D9364A3A
:101B6000126812F0020F61D033498A6822F0030232
:101B700013438B60FFF7A6FB06462F4B9B6803F0D1
:101B80000C036268B3EB820F16D0FFF79BFB801B40
:101B900041F288339842F0D9032042E0264A126885
:101BA00012F4003FE0D101203BE0234A126812F01A
:101BB000007FD9D1012034E01E4B1B6803F00703DE
:101BC000AB4207D9EAB21B4B1A701B6803F007033C
:101BD000AB422DD1236813F0040F06D0164A936848
:101BE00023F4E053E1680B439360236813F0080F7C
:101BF00007D0114A936823F46043216943EAC10383
:101C00009360FFF707FF0C4B9B68C3F303130B4A6A
:101C1000D35CD8400A4B18600A4B1868FFF706FBE4
:101C2000002070BD012070470120FAE70120F8E78D
:101C30000120F6E7003C024000380240103B00085B
:101C4000140000201C000020014B1868704700BFE2
:101C500014000020704700285AD010B50446436A8B
:101C600033B94368B3F5827F05D00023C36102E036
:101C70000023036143610023A36294F85130002BD9
:101C800040D0022384F851302268136823F04003C7
:101C90001360636803F48273A26802F4044213437E
:101CA000E26802F400621343226902F00202134365
:101CB000626902F001021343A26902F40072134345
:101CC000E26902F038021343226A02F080021343F1
:101CD000A26A02F40052216813430B60638B03F085
:101CE0000403626A02F01002216813434B60226809
:101CF000D36923F40063D36100206065012384F875
:101D0000513010BD84F850302046FFF7A3FFB8E7EC
:101D100001207047C1607047C06880B27047836817
:101D2000194201D0012070470020704730B4036A87
:101D300023F001030362036A4268846924F0730498
:101D40000D682C4323F0020C8B6843EA0C03104D02
:101D5000A84203D005F58065A84205D123F0080309
:101D6000CD682B4323F00403094DA84203D005F5A9
:101D70008065A84205D122F440724D692A438D69DD
:101D80002A43426084614A684263036230BC704700
:101D90000000014030B4036A23F480730362036AD5
:101DA0004268C46924F0730C0C6844EA0C0523F4FF
:101DB00000738C6843EA0423114CA04203D004F55D
:101DC0008064A04206D123F40063CC6843EA042374
:101DD00023F480630A4CA04203D004F58064A0423F
:101DE00007D122F440524C6942EA04128C6942EA5B
:101DF00004124260C5614A68C263036230BC704726
:101E00000000014030B4036A23F480530362036A84
:101E10004468C26922F4E6420D6842EA052223F4CE
:101E200000538D6843EA0533094DA84203D005F5F8
:101E30008065A84204D124F480444D6944EA8514A5
:101E40004460C2614A680264036230BC704700BFEC
:101E50000000014010B4036A046A24F00104046223
:101E6000846924F0F00C4CEA021223F00A030B43BD
:101E7000826103625DF8044B704710B4046A24F079
:101E8000100404628469036A24F4704C4CEA023240
:101E900023F0A00343EA0113826103625DF8044B5F
:101EA0007047836823F070030B4343F0070383609C
:101EB0007047000090F83D30DBB2012B37D1022390
:101EC00080F83D300268D36843F00103D3600368B3
:101ED000194A934220D0B3F1804F1DD0A2F57C4225
:101EE000934219D002F58062934215D002F58062C8
:101EF000934211D002F5784293420DD002F5705210
:101F0000934209D0A2F59432934205D01A6842F068
:101F100001021A60002070479A6802F00702062A40
:101F200007D01A6842F001021A60002070470120B1
:101F300070470020704700BF0000014070477047A5
:101F400070477047704710B5044603681A6912F06D
:101F5000020F11D0DA6812F0020F0DD06FF00202FA
:101F60001A610123037703689B6913F0030F70D094
:101F7000FFF7E6FF0023237723681A6912F0040FA6
:101F800012D0DA6812F0040F0ED06FF004021A615A
:101F90000223237723689B6913F4407F5FD0204698
:101FA000FFF7CEFF0023237723681A6912F0080F8A
:101FB00012D0DA6812F0080F0ED06FF008021A6122
:101FC000042323772368DB6913F0030F4ED02046E8
:101FD000FFF7B6FF0023237723681A6912F0100F6A
:101FE00012D0DA6812F0100F0ED06FF010021A61E2
:101FF000082323772368DB6913F4407F3DD0204614
:10200000FFF79EFF0023237723681A6912F0010F60
:1020100003D0DA6812F0010F36D123681A6912F082
:10202000800F03D0DA6812F0800F34D123681A6968
:1020300012F0400F03D0DA6812F0400F32D123685B
:102040001A6912F0200F03D0DA6812F0200F30D195
:1020500010BDFFF774FF2046FFF773FF8AE72046A5
:10206000FFF76DFF2046FFF76CFF9BE72046FFF769
:1020700066FF2046FFF765FFACE72046FFF75FFFEE
:102080002046FFF75EFFBDE76FF001021A612046B0
:10209000FEF7FAFCC1E76FF080021A61204600F0FB
:1020A0005FFBC3E76FF040021A612046FFF74AFF6B
:1020B000C5E76FF020021A61204600F050FBC7E729
:1020C0000368304A904212D0B0F1804F0FD0A2F591
:1020D0007C4290420BD002F58062904207D002F51C
:1020E0008062904203D002F57842904203D123F0FF
:1020F00070034A681343234A90422AD0B0F1804FBC
:1021000027D0A2F57C42904223D002F58062904213
:102110001FD002F5806290421BD002F578429042B7
:1021200017D002F57052904213D002F580629042AF
:102130000FD002F5806290420BD0A2F59832904207
:1021400007D002F58062904203D002F5806290428F
:1021500003D123F44073CA68134323F080034A6910
:10216000134303608B68C3620B688362054B98421C
:1021700003D003F58063984201D10B690363012307
:10218000436170470000014040B310B5044690F829
:102190003D30F3B1022384F83D30214651F8040B61
:1021A000FFF78EFF012384F8463084F83E3084F830
:1021B0003F3084F8403084F8413084F8423084F86D
:1021C000433084F8443084F8453084F83D300020B2
:1021D00010BD80F83C30FFF7B1FEDBE7012070470F
:1021E00030B4036A23F010030362036A446882690F
:1021F00022F4E6420D6842EA052223F020038D68AE
:1022000043EA0513114DA84203D005F58065A842A5
:1022100006D123F08003CD6843EA051323F0400381
:102220000A4DA84203D005F58065A84207D124F4E1
:1022300040644D6944EA85048D6944EA850444603C
:1022400082614A688263036230BC704700000140CB
:1022500038B590F83C30012B66D004460D4601237A
:1022600080F83C300C2A5AD8DFE802F00759595957
:102270001B5959593059595944000068FFF756FD08
:102280002268936943F0080393612268936923F0FD
:10229000040393612268936929690B4393610020C9
:1022A0003EE00068FFF79CFF2268936943F40063F7
:1022B00093612268936923F4806393612268936930
:1022C000296943EA01239361002029E00068FFF7B0
:1022D00061FD2268D36943F00803D3612268D369A2
:1022E00023F00403D3612268D36929690B43D361C6
:1022F000002015E00068FFF785FD2268D36943F4EC
:102300000063D3612268D36923F48063D3612268B8
:10231000D369296943EA0123D361002000E0012049
:10232000002384F83C3038BD0220FCE710B48468F8
:1023300024F47F4C42EA03220A4342EA0C02826000
:102340005DF8044B704790F83C30012B78D010B505
:102350000446012380F83C30022380F83D300268B7
:10236000936823F47F4323F0770393600B68602B1B
:102370004CD029D8402B54D00CD9502B22D1CA682C
:1023800049680068FFF766FD50212068FFF789FD66
:10239000002005E0202B0DD009D9302B0AD00120D8
:1023A000012384F83D30002384F83C3010BD0BB18C
:1023B000102B05D119462068FFF773FD0020EFE7C9
:1023C0000120EDE70120EBE7B3F5805F34D0B3F5F2
:1023D000005F0CD1CB684A6889680068FFF7A6FFE8
:1023E0002268936843F4804393600020D8E7702B01
:1023F00024D1CB684A6889680068FFF797FF226894
:10240000936843F0770393600020C9E7CA6849687E
:102410000068FFF732FD60212068FFF742FD0020D1
:10242000BEE7CA6849680068FFF714FD40212068CC
:10243000FFF737FD0020B3E70020B1E70120AFE749
:102440000220704701F01F01012303FA01FC036A17
:1024500023EA0C030362036A02FA01F10B430362ED
:102460007047000010B504460846002942D194F890
:102470003E30DBB2013B18BF0123002B6ED1002898
:1024800051D1022384F83E30012201462068FFF733
:10249000D9FF2368334A934203D002F58062934206
:1024A00003D15A6C42F400425A6423682D4A934285
:1024B00049D0B3F1804F46D0A2F57C42934242D03E
:1024C00002F5806293423ED002F5806293423AD098
:1024D00002F57842934236D002F57052934232D0E0
:1024E000A2F5943293422ED01A6842F001021A608B
:1024F000002032E0042908D008290DD094F841309A
:10250000DBB2013B18BF0123B7E794F83F30DBB2E1
:10251000013B18BF0123B0E794F84030DBB2013B28
:1025200018BF0123A9E7042805D0082807D00223F3
:1025300084F84130A8E7022384F83F30A4E702235F
:1025400084F84030A0E79A6802F00702062A07D014
:102550001A6842F001021A60002010BD0120FCE759
:102560000020FAE70000014001F01F01042303FAF4
:1025700001FC036A23EA0C030362036A02FA01F115
:102580000B4303627047000010B50446084600295B
:102590003BD194F84230DBB2013B18BF0123002B42
:1025A00067D100284AD1022384F842300422014630
:1025B0002068FFF7D9FF2268536C43F4004353644B
:1025C00023682E4A934249D0B3F1804F46D0A2F5FA
:1025D0007C42934242D002F5806293423ED002F5A3
:1025E000806293423AD002F57842934236D002F5A7
:1025F0007052934232D0A2F5943293422ED01A6890
:1026000042F001021A60002032E0042908D00829B3
:102610000DD094F84530DBB2013B18BF0123BEE773
:1026200094F84330DBB2013B18BF0123B7E794F8BD
:102630004430DBB2013B18BF0123B0E7042805D0CA
:10264000082807D0022384F84530AFE7022384F836
:102650004330ABE7022384F84430A7E79A6802F0DE
:102660000702062A07D01A6842F001021A60002009
:1026700010BD0120FCE70020FAE700BF0000014088
:1026800090F83C30012B3DD010B4012380F83C3051
:10269000022380F83D3003685A689C6822F0700C71
:1026A0000A6842EA0C025A600368174A93421AD039
:1026B000B3F1804F17D0A2F57C42934213D002F5BC
:1026C000806293420FD002F5806293420BD002F5F4
:1026D0007842934207D002F57052934203D0A2F59C
:1026E0009432934204D124F080044A6814439C60DD
:1026F000012380F83D30002380F83C3018465DF817
:10270000044B7047022070470000014090F83C30B5
:10271000012B22D0012380F83C30CB6823F4407396
:102720008A68134323F480634A68134323F40063E5
:102730000A68134323F480530A69134323F40053B4
:102740004A69134323F48043CA69134302685364FC
:10275000002380F83C3018467047022070477047CD
:1027600070470268D36823F49073D360026853699A
:1027700023F001035361202380F83A30704790F82A
:102780003930DBB2212B01D0022070478368B3F5CA
:10279000805F17D0036A5A1C02621A7803685A6075
:1027A000C38C9BB2013B9BB2C3844BB90268D36814
:1027B00023F08003D3600268D36843F04003D36002
:1027C00000207047036A1B880268C3F30803536044
:1027D00003691BB9036A02330362E1E7036A013349
:1027E0000362DDE7704708B50168CA6822F040025D
:1027F000CA60202280F83920FFF7F4FF002008BDCE
:10280000704708B590F83A30DBB2222B46D1836886
:10281000B3F5805F0FD003690BBB03685A68836A06
:10282000591C81621A70C38D9BB2013B9BB2C38558
:10283000F3B1002008BD826A036943B903685B688D
:10284000C3F308031380836A02338362EBE70368F0
:102850005B68DBB21380836A01338362E3E703685A
:102860005B68826A511C816203F07F031370DAE7B0
:102870000268D36823F02003D3600268D36823F48E
:102880008073D3600268536923F0010353612023EE
:1028900080F83A30FFF7B4FF0020CBE70220C9E709
:1028A0007047000010B5044602681368D168526989
:1028B00013F00F0005D113F0200F02D011F0200FFC
:1028C00013D128B112F0010213D111F4907F10D16D
:1028D00013F0800F02D011F0800F69D113F0400F78
:1028E00002D011F0400F67D110BD2046FFF789FFDD
:1028F000FAE713F0010F06D011F4807F03D0E06BEC
:1029000040F00100E06313F0040F04D01AB1E06B53
:1029100040F00200E06313F0020F04D01AB1E06B44
:1029200040F00400E06313F0080F04D01AB1E26B2A
:1029300042F00802E263E26B002AD5D013F0200FC8
:1029400002D011F0200F21D123685B6903F040030E
:10295000E26B12F0080F00D123B32046FFF701FF0E
:1029600023685A6912F0400F18D05A6922F04002C9
:102970005A61636B73B1124A1A65606BFEF742FDD0
:102980000028B1D0606B036D9847ADE72046FFF794
:1029900038FFD9E72046FFF783FFA5E72046FFF77A
:1029A0007FFFA1E72046FFF77BFF0023E3639BE760
:1029B0002046FFF7E4FE97E72046FFF714FF93E772
:1029C000C529000808B5806B0023C385C384FFF7C1
:1029D00067FF08BD43684B609A688A6051609960E0
:1029E00008610368013303607047036941688268C6
:1029F0008A60416851605A68824206D000220261B2
:102A00001A68013A1A601868704782685A60F5E7D8
:102A1000074B19680868B0E8F04F80F30988BFF3E6
:102A20006F8F4FF0000080F311887047AFF3008084
:102A300094060020000000000000000000000000DC
:102A4000EFF30980BFF36F8F154B1A681EF0100F5C
:102A500008BF20ED108A20E9F04F10602DE9090031
:102A60004FF0500080F31188BFF34F8FBFF36F8F8B
:102A700000F0D0F84FF0000080F3118809BC19680D
:102A80000868B0E8F04F1EF0100F08BFB0EC108AD5
:102A900080F30988BFF36F8F704700BFAFF30080EA
:102AA0009406002008B54FF0500383F31188BFF35C
:102AB0006F8FBFF34F8F00F021F828B14FF0E02364
:102AC0004FF08052C3F8042D002383F3118808BD12
:102AD000084B1B681B6823B9074B4FF0FF321A6085
:102AE0007047044B1B68DB68DB685A68024B1A604E
:102AF000704700BF9806002034070020F8B53A4B15
:102B00001B68002B69D1394B1D6801351D60C5B9A3
:102B1000374B1B681B6843B14FF0500383F3118898
:102B2000BFF36F8FBFF34F8FFEE7314A1168314B10
:102B3000186810601960304A136801331360FFF79A
:102B4000C7FF2E4B1B68AB423DD900272C4B1B689F
:102B5000DB6A03EB83039A002A4B9B58012B00D9B5
:102B60000127294B1B68002B3CD001273AE00127A5
:102B70001F4B1B681B6843B31D4B1B68DB68DC687D
:102B800063689D4226D3261D3046FFF72EFFA36AB9
:102B90001BB104F11800FFF728FFE36A01229A40F5
:102BA0001A49086802430A6003EB83039A0031461E
:102BB00014481044FFF70EFFE26A114B1B68DB6AF2
:102BC0009A42D4D2D4E70027D2E70C4B4FF0FF3221
:102BD0001A60BBE7094A1360B8E70D4A136801336E
:102BE000136000273846F8BD2C070020440700205A
:102BF000980600209C06002038070020340700209B
:102C000094060020A006002048070020300700207E
:102C10003C070020204B1B681BB1204B01221A608F
:102C200070471E4B00221A601D4B1B68B3FA83F3DA
:102C3000DBB2C3F11F0303EB83018A0019498A58F1
:102C400042B94FF0500383F31188BFF36F8FBFF386
:102C50004F8FFEE7134903EB830082000A4450685C
:102C60004068506003EB830C4FEA8C020832114439
:102C7000884209D003EB83039A000A4B13445B6834
:102C8000DA68094B1A607047406862469100054A4D
:102C90000A445060EEE700BF2C07002048070020E0
:102CA00030070020A006002094060020054B1B687A
:102CB00033B1054B1B680BB10020704702207047F1
:102CC00001207047400700202C07002070B50D4EF2
:102CD0000D4D761BB61006D0002455F8043B013488
:102CE0009847A642F9D1094E094D761B00F004FF22
:102CF000B61006D0002455F8043B01349847A6428C
:102D0000F9D170BDFC3E0008FC3E0008043F0008FD
:102D1000FC3E0008830730B548D0541E002A3FD03F
:102D2000CAB2034601E0013C3AD303F8012B9D07E8
:102D3000F9D1032C2DD9CDB245EA05250F2C45EA52
:102D4000054536D9A4F1100222F00F0C03F1200E34
:102D5000E6444FEA121C03F1100242E9045542E92D
:102D6000025510327245F8D10CF1010214F00C0F2B
:102D700003EB021204F00F0C13D0ACF1040323F0A8
:102D800003030433134442F8045B9342FBD10CF079
:102D900003042CB1CAB21C4403F8012B9C42FBD1A2
:102DA00030BD64461346002CF4D1F9E703461446BF
:102DB000BFE71A46A446E0E7024B13B1024800F011
:102DC00005B8704700000000D92D00080023014617
:102DD0001A46184600F01AB838B5084B084D5B1B68
:102DE0009C1007D0043B1D44013C55F8043998471A
:102DF000002CF9D1BDE8384000F084BE083F00083F
:102E0000043F0008704700BF704700BF2DE9F0473E
:102E1000DFF880A00646DAF8000098460F46914693
:102E2000FFF7F0FF1A4B1B68D3F8484124B36568DD
:102E30001F2D26DC5EB96B1C0235DAF800006360DA
:102E400044F82570FFF7E0FF0020BDE8F08704EBB1
:102E500085010123C1F88890D4F88821AB401A433A
:102E6000022EC4F88821C1F80881E4D1D4F88C215D
:102E70001343C4F88C31DEE703F5A674C3F8484168
:102E8000D5E7DAF80000FFF7BFFF4FF0FF30DCE7CF
:102E9000203B00084804002010EE103A194A23F0A5
:102EA000004393421CDDB3F1FF4F02DB30EE400ADA
:102EB000704700B583B0684600F028F800F00300C2
:102EC0000128DDED010A9DED000A0ED0022813D085
:102ED00070B100F04DF9B1EE400A03B05DF804FBAB
:102EE000DFED090A002000F0FFBC00F041F9F4E733
:102EF000012000F0F9FCF0E7012000F0F5FCB1EE54
:102F0000400AEAE7D80F493F0000000070B510EE14
:102F1000103A894A23F00044944286B0054670DD99
:102F2000864A944210EE106A22DC002BDFED847A90
:102F3000844A24F00F04B0EE407A40F3E4809442D7
:102F400070EE677A09BFDFED806A9FED807A9FEDB2
:102F5000807A77EEE67A012077EEC76A77EEE67A36
:102F6000C5ED006A77EEC77AC5ED017A06B070BD8F
:102F7000784A944254DDB4F1FF4F49DAE215863ABB
:102F8000A4EBC25307EE903ABDEEE77ADFED726A2A
:102F9000B8EEC77A77EEC77A8DED037A67EEA67A38
:102FA000BDEEE77AB8EEC77A77EEC77A8DED047A90
:102FB00067EEA67AF5EE407AF1EE10FACDED057ADD
:102FC00040F09080B5EE407AF1EE10FA14BF022383
:102FD0000123624901910221009103A8294600F0D2
:102FE00049F9002EC2DA95ED007AD5ED017AB1EEFD
:102FF000477AF1EE677A85ED007AC5ED017A4042B5
:10300000B4E7002285ED000A4260002006B070BDE2
:1030100070EE407A0020C5ED017AC5ED007AA5E793
:1030200000F0AAFC9FED4E7A9FED456AF6EE007A1D
:10303000E0EE077A9FED457AFDEEE77A17EE900A0B
:10304000F8EEE76A1F28A6EEC60A66EE877AB1EEAA
:10305000666A1EDC434A411E24F0FF0352F8212019
:10306000934216D030EE677A85ED007A30EE470A4B
:10307000002E30EE670A85ED010ABFF677AFB1EE9C
:10308000477AB1EE400A85ED007A85ED010A4042AB
:103090006CE730EE677AE21517EE103AC3F3C753C8
:1030A000C3EBD454082CDFDDDFED277A9FED287ABF
:1030B000F0EE405AE6EE275A30EE650AA6EE270AF1
:1030C000F0EE407AD6EE877A35EEE77A17EE103AD0
:1030D000C3F3C753D21A192A06DCB0EE650A85ED90
:1030E000007AC3E7032374E79FED1F7A9FED1F5A11
:1030F000B0EE650AA6EE070A75EEC07AE6EE077A2C
:10310000D6EE857AAEE7944270EE277A09BFDFEDFE
:103110000E6A9FED0E7A9FED0E7A77EEA67A4FF04B
:10312000FF3077EE876A77EEE67AC5ED006A77EED4
:10313000877AC5ED017A19E7D80F493FE3CB1640EE
:10314000800FC93FD00FC93F00443537434435375E
:1031500008A3852E800F494300008043A43B00084C
:1031600084F9223F243B000800A3852E32318D24B0
:1031700010EE103A23F00043B3F1485F2CDAFDEE75
:10318000C07A17EE903A002B60D020EE007ADFED87
:10319000317A9FED315ADFED315A9FED316ADFED23
:1031A000316AA7EE275ADFED307AE7EE055AA7EE2F
:1031B000256AE7EE067AE7EE276A67EE266A60EE92
:1031C000C00AF6EE007AE7EE260AB7EE000AD7EE5E
:1031D000270A30EE600A704720EE007ADFED1D7A94
:1031E0009FED1D5ADFED1D5A9FED1D6ADFED1D6A33
:1031F0001E4AA7EE275A9342DFED1B7AE5EE075AE7
:10320000A5EE876AE6EE077AE7EE876A66EE876ADA
:10321000D5DD174A934214DC03F17F4307EE903A61
:10322000B7EE006A36EE676A60EEC00AF6EE005A44
:10323000D7EE257AE7EE260A77EEE00A36EE600A48
:103240007047B6EE076AF5EE027AEDE7B7EE000AD0
:10325000704700BF4ED747ADF6740F317CF293B480
:10326000010DD037ABAA2A3D610BB6BA9999993EA8
:103270000000483F2DE9F04F2DED048BDBB01C46DC
:1032800003930691A24B6899089253F82150111D9F
:10329000824604F1FF38C0F2A382D31E48BF131D3B
:1032A000DB1002930133DB000793DDE907239B1A50
:1032B0000593029B15EB0801A3EB080316D401311B
:1032C0009FED947A699819441EAA002BA4BF50F868
:1032D000234007EE904A03F10103ACBFF8EEE77A12
:1032E000F0EE477A8B42E2EC017AEED1002DC0F28B
:1032F000E782039B1EAA02EB830446AE4FEA830CCF
:103300004046EF180AEB8301B8F1000FDFED817A38
:1033100009DB22465346F3EC016A32ED017A8B4217
:10332000E6EE877AF7D10130B842E6EC017A04F193
:103330000404E9D109AB0AAF03EB850907EB850368
:10334000083B9FED769ADFED748A059804930AEBAB
:103350000C0446AE00955AAB03EB8503002D13ED2C
:10336000140A4FEA850B16DD06EB85033A4660EE3C
:10337000097AB0EE407AFDEEE77A73ED016AF8EE75
:10338000E77AB342A7EEE87A37EEA60ABDEEC77A2F
:10339000A2EC017AEBD1019000F03CFBB0EE408A48
:1033A000B4EE000A28EE000A00F0EEFAF2EE007A1F
:1033B000A0EE678A01980028FDEEC89AF8EEE97A37
:1033C00038EE678A79DD05F1FF3EC0F1080357F852
:1033D0002E1041FA03FC0CFA03F3CB1AC0F10702DA
:1033E00019EE901A43FA02F26144002A47F82E308F
:1033F00009EE901A69DCB5EE408AF1EE10FA40F061
:10340000C080009B05F1FF3B5B4510DC05F180436C
:10341000013B07EB83030021944653F804294B45F5
:1034200041EA0201F9D16246002940F0F280009B96
:10343000013B57F82330002B40F0E780049B4FF00E
:10344000010C53F804290CF1010C002AF9D06B1C73
:10345000AC449E46039A5119029A02EB030B0BF1FE
:10346000804B699A0BF1FF3B06EB83051EAB02EB29
:103470008B0B03EB8101DBED017A9FED267AF8EEF1
:10348000E77AB8F1000F0BF1040BC1ED007A0A46A0
:1034900001F1040109DB534601E072ED017AF3EC1E
:1034A000016AA342A6EEA77AF7D10EF1010EE64516
:1034B000A5EC017ADFDD65464DE740F09C806B1E90
:1034C00057F82320D211002A95DD19EE903A002DED
:1034D00003F1010309EE903A40F39881396800291D
:1034E0007FD1012D26D03B464FF0010C53F8041F2D
:1034F00000297AD00CF10103C1F580719D4247F893
:103500002C1016DD57F82310BB4407EB83030AE0A9
:10351000E83E000800000000000080430000803BFF
:103520000000C93F1968C1F1FF0143F8041B5B4566
:10353000F8D1012100280CDD012800F04881022883
:1035400007D105F1FF3C57F82C3003F03F0347F853
:103550002C30022A7FF44FAFB7EE000A30EE488AD3
:1035600000293FF448AF0992019000F053FA38EE79
:10357000408A099A0198B5EE408AF1EE10FA3FF4BC
:1035800040AF0292DDE90732B0EE480A981A019581
:10359000009D00F03FFA1FED207AB4EEC70AF1EE6D
:1035A00010FADDE90132C0F259815FED247A059904
:1035B00060EE277A0831FDEEE77A0591F8EEE77ABA
:1035C00003F1010BA7EEC70AFDEEE77ABDEEC00AD4
:1035D00010EE101A47F8231017EE903A47F82B30E8
:1035E0002EE001234FF0000C86E70CF1010CAC45F6
:1035F0007FF47CAF9EE7F6EE007AB4EEE78AF1EE58
:1036000010FA80F2F2800022F5E66B1C9E469C4682
:1036100020E70599A1F1080057F82B1005902B46DB
:10362000009D69B903F18043023B07EB8303014628
:1036300053F804090BF1FF3B08390028F8D0059135
:1036400005980092B7EE000A00F0E4F9BBF1000F14
:10365000009AC0F228814FEA8B0E46AB03EB0E06B0
:103660000EF1040C1FED537A07EB0C03311D73EDC3
:10367000017AF8EEE77ABB4267EE807A20EE070A1D
:1036800061ED017AF3D1002D1FED5B6A4FF000046C
:1036900020DB9348DFED937AB0EE467A3146002383
:1036A00003E09C4208DBB0EC017AF1EC016A0133E3
:1036B0009D42E6EE877AF4DA5AAB03EB8403A34526
:1036C00043ED287AA6F1040604F1010305D0002D8C
:1036D0001C46DEDADFED837AEEE7689902291CDC0E
:1036E000002900F395800FD132ABDFED7E7A9C4448
:1036F0003CED017A634577EE877AF9D10AB1F1EEB4
:10370000677A069BC3ED007A19EE903A03F0070042
:103710005BB0BDEC048BBDE8F08F689B032BF3D14D
:10372000BBF1000F00F0D4800EF5B4736B4432A9E6
:1037300013ED287A01EB8B0373ED017AF0EE476A03
:1037400037EE277A994277EEC77A83ED007A77EEE3
:10375000A67AC3ED017AEFD1BBF1010F40F3B88037
:103760000BF1804B0EF5B4730BF1FF3B0DEB030E29
:103770004FEA8B0B0BF104031EED287A0B4433A8A0
:1037800073ED017AF0EE476A37EE277A984277EECA
:10379000C77A83ED007A77EEA67AC3ED017AEFD18E
:1037A0000BF1080BDFED4F7A01EB0B03083133ED22
:1037B000017A994277EE877AF9D1002A56D1069993
:1037C000329A339B0A604B60C1ED027A9CE705F1A7
:1037D000FF3C57F82C3003F07F0347F82C30B8E655
:1037E00008230793002302935FE519EE903A002D1A
:1037F00003F1010309EE903AC8BF02223FF76EAE13
:10380000F7EE007A37EEC88A0222F4E5002191E64D
:1038100032A9DFED347A01EB830333ED017A99426B
:1038200077EE877AF9D19DED327A8ABB069BBBF1A0
:10383000000FC3ED007A77EE677A0BDD33A9012321
:10384000B1EC017A01339B4577EE877AF8DA0AB159
:10385000F1EE677A069BC3ED017A55E7BDEEC00A2B
:103860009B4610EE101A47F82310E9E6DDED326AA8
:103870009DED337A069BF1EE666AB1EE477AF1EE82
:10388000677AC3ED006A83ED017AC3ED027A3BE704
:10389000069BF1EE676ABBF1000F77EE677AC3ED26
:1038A000006ACBDCD4E7689B022B0DDC002B14DC18
:1038B0007FF42AAFDFED0B7A002A3FF422AF1EE738
:1038C000039B4FEA830C35E5689B032B7FF41CAF09
:1038D000DFED047A002AC9D171E7DFED027AA2E7B1
:1038E000C03E00080000000010EE103A23F0004334
:1038F000B3F1485F04DAFDEEC07A17EE903A5BB39D
:1039000060EE007A9FED157ADFED155A9FED156A8E
:10391000DFED156AE7EE875A9FED147AA5EEA76AE8
:1039200020EE275AE6EE276AA6EEA77A30B9DFED39
:10393000106AE7EE876AA6EE850A704727EE457A99
:10394000F6EE006AA0EEA67ADFED0A6AD7EE270A45
:10395000E5EE260A30EE600A704700BFD3C92E2F6D
:10396000342FD7B21BEF3836010D50B98988083C87
:10397000ABAA2ABEABAA2A3E10EE103A23F00043AF
:1039800000EE103A704700BF10EE102AC2F3C75382
:103990007F3B162B22F0004128DC002B18DB1A4954
:1039A00019410A4221D0DFED197A70EE277AF5EE3F
:1039B000C07AF1EE10FA18DD002A04DA4FF40000A4
:1039C00040FA03F31A4422EA010300EE103A70476A
:1039D000DFED0E7A70EE277AF5EEC07AF1EE10FA8E
:1039E00003DD002A08DB9FED0A0A7047B1F1FF4FA3
:1039F000FBD330EE000A7047FFEE007A002918BFB3
:103A0000B0EE670A704700BFFFFF7F00CAF249713E
:103A10000000000082B08DED010A019B33F00042EE
:103A20002AD0B2F1FF4F23D213F0FF4F28D19DEDE2
:103A3000017ADFED2A7A2A4B67EE277A9842CDED9C
:103A4000017A37DB019BC3F3C752193A0244FE2ABD
:103A50001ADD9FED240A9FED247A019B002BF0EEE6
:103A6000407AB8BFB0EE470A20EE270A02B070478E
:103A700030EE000A02B070479DED010A02B07047B7
:103A8000D20D0244FE2AE4DC002A0BDC12F1160FF0
:103A900017DA4CF250339842DBDC9FED140A9FEDAD
:103AA000147ADAE723F0FF4343EAC25300EE103AF8
:103AB00002B070479FED0D0ADDED017A27EE800A16
:103AC000D8E7193223F0FF4343EAC253DFED097A06
:103AD00007EE103A27EE270ACCE700BF0000004CA3
:103AE000B03CFFFFCAF24971CAF249F16042A20D2F
:103AF0006042A28D00000033F8B500BFF8BC08BCDE
:103B00009E467047F8B500BFF8BC08BC9E4670479B
:103B1000000000000000000001020304060708097D
:103B200020000020000FC93F000F494000CB964005
:103B3000000FC9400053FB4000CB164100ED2F4160
:103B4000000F49410031624100537B41003A8A41F4
:103B500000CB9641005CA34100EDAF41007EBC412B
:103B6000000FC94100A0D5410031E24100C2EE4141
:103B70000053FB4100F20342003A0A420083104224
:103B800000CB164200141D42005C234200A52942CE
:103B900000ED2F4200363642007E3C4200C74242D2
:103BA000000F4942A2000000F9000000830000005D
:103BB0006E0000004E0000004400000015000000F0
:103BC00029000000FC000000270000005700000052
:103BD000D1000000F500000034000000DD0000000E
:103BE000C0000000DB000000620000009500000043
:103BF000990000003C00000043000000900000001D
:103C000041000000FE0000005100000063000000C1
:103C1000AB000000DE000000BB000000C50000009B
:103C200061000000B7000000240000006E000000EA
:103C30003A000000420000004D000000D2000000E9
:103C4000E000000006000000490000002E00000017
:103C5000EA00000009000000D1000000920000000E
:103C60001C000000FE0000001D000000EB00000032
:103C70001C000000B100000029000000A7000000A7
:103C80003E000000E8000000820000003500000057
:103C9000F50000002E000000BB0000004400000002
:103CA00084000000E90000009C000000700000009B
:103CB00026000000B40000005F0000007E0000004D
:103CC000410000003900000091000000D600000013
:103CD000390000008300000053000000390000009C
:103CE000F40000009C000000840000005F00000061
:103CF0008B000000BD000000F9000000280000005B
:103D00003B0000001F000000F800000097000000CA
:103D1000FF000000DE000000050000009800000029
:103D20000F000000EF0000002F0000001100000055
:103D30008B0000005A0000000A0000006D00000027
:103D40001F0000006D000000360000007E00000033
:103D5000CF00000027000000CB0000000900000099
:103D6000B70000004F000000460000003F000000C8
:103D7000660000009E0000005F000000EA000000F6
:103D80002D0000007500000027000000BA000000B0
:103D9000C7000000EB000000E5000000F10000009B
:103DA0007B0000003D00000007000000390000001B
:103DB000F70000008A00000052000000920000009E
:103DC000EA0000006B000000FB0000005F00000044
:103DD000B10000001F0000008D0000005D00000029
:103DE0000800000056000000030000003000000042
:103DF00046000000FC0000007B0000006B0000009B
:103E0000AB000000F0000000CF000000BC0000008C
:103E1000200000009A000000F400000036000000BE
:103E20001D000000A9000000E30000009100000058
:103E3000610000005E000000E60000001B000000C2
:103E400008000000650000009900000085000000E7
:103E50005F00000014000000A000000068000000E7
:103E6000400000008D000000FF000000D8000000AE
:103E7000800000004D0000007300000027000000DB
:103E800031000000060000000600000015000000E0
:103E900056000000CA00000073000000A8000000E7
:103EA000C900000060000000E20000007B0000008C
:103EB000C00000008C0000006B0000000000C93F43
:103EC0000000F0390000DA370000A2330000842E31
:103ED0000000502B0000C2270000D0220000C41FA9
:103EE0000000C61B0000441704000000070000008B
:043EF00009000000C5
:083EF4000CC3FF7F0100000078
:083EFC00B92D0008B501000812
:043F0400910100081F
:103F0800010000000000C843910A0640910A06C05B
:103F1800CDCC4C3E0024F40001000000100000004D
:103F2800000000000C03002074030020DC030020C4
:103F38000000000000000000000000000000000079
:103F48000000000000000000000000000000000069
:103F58000000000000000000000000000000000059
:103F68000000000000000000000000000000000049
:103F78000000000000000000000000000000000039
:103F88000000000000000000000000000000000029
:103F98000000000000000000000000000000000019
:103FA8000000000000000000000000000000000009
:103FB80000000000000000000000000000000000F9
:103FC80000000000000000000100000000000000E8
:103FD8000E33CDAB34126DE6ECDE05000B000000AD
:103FE80000000000000000000000000000000000C9
:103FF80000000000000000000000000000000000B9
:1040080000000000000000000000000000000000A8
:104018000000000000000000000000000000000098
:0C43480000000000000000004C070020F6
:04000005080011D905
:00000001FF
